:100000000C943B030C9473030C9473030C947303D0
:100010000C9473030C9473030C9473030C94730388
:100020000C9473030C9473030C9473030C940830B6
:100030000C94B8300C94542A0C9473030C947303EE
:100040000C9473030C9473030C9473030C94EE2AB6
:100050000C9473030C9473030C9473030C94730348
:100060000C9473030C9473030C9473030C94730338
:100070000C9473032C002C002C002C002C002C0062
:100080002C002C002C002C002C002C002C002C0010
:100090002C002C002C002C002C002C002C002C0000
:1000A0002C002C002C002C002C002C002C002C00F0
:1000B0002C002C0000002C00000000002C002C0064
:1000C00000002C00010001000100010001000100FE
:1000D0000100010001000100010001000100010018
:1000E0000100010001000100010001000100010008
:1000F00001000100010001000100010001000100F8
:1001000001000100000001000000000001000100EA
:1001100000000100010001000100010001000100D8
:1001200001000100010001000100010001000100C7
:1001300001000100010001000100010001000100B7
:1001400001000100010001000100010001000100A7
:10015000010001000000010000000000010001009A
:100160000000010001000100010001000100010088
:100170000100010001000100010001000100010077
:100180000100010001000100010001000100010067
:100190000100010001000100010001000100010057
:1001A000010001000000010000000000010001004A
:1001B0000000010000000000000000002A2B2800C1
:1001C0000000000000000000000000000000002906
:1001D000000000002C1E3420212224342627252E46
:1001E000362D3738271E1F2021222324252633337E
:1001F000362E37381F0405060708090A0B0C0D0EAA
:100200000F101112131415161718191A1B1C1D2F75
:100210003130232D350405060708090A0B0C0D0E95
:100220000F101112131415161718191A1B1C1D2F55
:100230003130354C000000000000000000000000DC
:1002400000000000000000000000000000000000AE
:1002500000000000000000007E0F00D4FFFFFFC779
:1002600000000078FD377A585A000004E6D6B446FC
:100270000200210116000000742FE5A3E0039501A0
:10028000635D003D8889C65436C3174FE4DB9B3E4F
:10029000A04539B3998B00D189C466A2CA87CEB074
:1002A000446358FA4EB13735DE3DAC85A3CB44FFED
:1002B0002116C7CBF87A281A418A5F4112951A1E77
:1002C000B4034B760E26291F48CA9D0A5EE6DFF668
:1002D0000E9DF68E7D6959D293D43CA85A36EF3ADA
:1002E0002A5D727E9297055B7FB84F1D45FC9B0689
:1002F00030DFCDB301870A3CB06B6AC3CC71C6E373
:10030000EFEF231AB3CE63AE9FF29B5303DC010CD5
:10031000B87596A26A8DB6930703B537511ABF6FA9
:100320007DDA45842388CA69122CE4B42349453216
:10033000224619B2E7769740E74DD2C8DA3CE01E74
:10034000BB88E92516741D0DCA6D815BBC9BC7CCAB
:10035000842DED998D6D7240FA7EEB0DB5940C14E1
:100360007360BB6199FF1CC6685DF226587FEB067F
:10037000665BBAB26B8297477530477DD9C310FD73
:1003800075E3AE4C050363E4985FBD1AF0286F8BEC
:100390001B25F063021AB1FE149859AFE499029438
:1003A000536740EF49D7DBBB7CFC7C74096AC924E6
:1003B00023F98CAC06E3F470907911365165768E92
:1003C00057D0868A824A25475BD10E431078E120B8
:1003D00037A0C33E5E9B5EAB58D48AF67096F4138A
:1003E000990F5A4BA42000009284200C24A81F408F
:1003F0000001FF02960700008C8435C0B1C467FB82
:10040000020000000004595A01000100B00300007E
:1004100002000200AC03000003000100B103000071
:100420000400020096033E2105000100B203000013
:10043000060002009803000007000200AE0300005F
:1004400008000100B3030000090002009A0319210B
:100450000A0002009C0319210B0002009E031921CF
:100460000C000200A00319210D000200A2031921B3
:100470000E000200A40319210F000200A603192197
:1004800010000200A803192111000200AA0319217B
:1004900012000200B403000013000200B6030000C3
:1004A0001C037600690061006C003A0066003600AB
:1004B00034006300320062003300630000000E036A
:1004C0004100640061006C0079006E0000001603BA
:1004D00074006F006D0069006E00610062006F00C3
:1004E0007800310000000403090409025B000301E5
:1004F00000A0FA0904000001030101000921110113
:1005000000012240000705810308000109040100E1
:100510000203000000092111010001222200070549
:1005200082032000010705030320000109040200E3
:10053000010300000009211101000122BC00070590
:1005400084032000011201000200000008317464DD
:10055000610100010203010660FF0961A101096256
:10056000150026FF009520750881020963150026F5
:10057000FF00952075089102C005010902A10185BF
:10058000020901A100050919012905150025019598
:100590000575018102950175038101050109300985
:1005A000311581257F950275088106093815812549
:1005B0007F950175088106050C0A38021581257F93
:1005C000950175088106C0C005010980A101850358
:1005D00019012AB700150126B70095017510810091
:1005E000C0050C0901A101850419012AA002150109
:1005F00026A002950175108100C005010906A10120
:100600008506050719E029E71500250195087501FC
:1006100081020507190029EF1500250195F07501E4
:1006200081020508190129059505750191029501B9
:1006300075039101C005010906A101050719E0290B
:10064000E71500250195087501810295017508815E
:10065000010507190029FF150026FF0095067508FA
:10066000810005081901290595057501910295017B
:1006700075039101C00011241FBECFEFD4E0DEBF8F
:10068000CDBF04B603FE18C08091C9039091CA0380
:10069000A091CB03B091CC038730904BA740B04BD7
:1006A00059F41092C9031092CA031092CB0310920E
:1006B000CC03E0E0F8E3099511E0A0E0B1E0E8E563
:1006C000F7E602C005900D92A23AB107D9F723E0F0
:1006D000A2EAB1E001C01D92A93CB207E1F70E9475
:1006E000EA150C943C330C9400009C019A958115FA
:1006F0009F4118F5F901EE27F270832F8170B9013F
:1007000066277470A9014427587034FF0CC0829585
:10071000807FEF2B09F08062672B09F08064452B06
:1007200069F080680895EF2B09F08260672B09F06B
:100730008460452B19F08860089580E00895CF9378
:10074000DF93EB010E947503FE01DF91CF910994C5
:10075000CF93DF93EC01805E9109089720F068E663
:1007600077E0209711F46AE577E0CE010E949F03BD
:100770008C2FDF91CF910C945006CF93DF93EC0137
:100780000E94E106CE01805E9109089720F06FE695
:1007900077E0209711F461E677E0CE01DF91CF9109
:1007A0000C949F0381E0089581E008950C94D40394
:1007B00008950C94D8031F93CF93DF9300D000D0FB
:1007C0000F92CDB7DEB749835A836B833091A50171
:1007D00089819A8131111DC06623B9F02223A9F0C5
:1007E0000E94710B182F682F89819A810E940D0B2E
:1007F00069817A81812F0F900F900F900F900F9049
:10080000DF91CF911F910C9408200E94410B182F6B
:10081000EFCF0E94710B69817A81EDCFFC01262F09
:10082000408151816281738184810C94DB0381E07A
:100830000895CF93DF93D82FC92F60E00E940E0454
:100840006D2F7C2FDF91CF910C94D903E1E0F0E084
:10085000DF0102C0AA0FBB1F6A95E2F7BD01DF01ED
:1008600002C0AA0FBB1F4A95E2F76A2B01C0EE0F28
:100870002A95EAF7962F9823961302C08E2B089597
:10088000E0958E230895242F462F682F8091B7017D
:100890000E9426040C94CA0A0C9470140C947314CD
:1008A00008950E948A070E9450042FEF84E39CE081
:1008B000215080409040E1F700C000000C94122BC2
:1008C0000F931F93CF93DF93EC018B010E94C827F6
:1008D000B801CE010E94F818882309F44FC0B8016E
:1008E000CE010E94ED1D882309F448C0B801CE0155
:1008F0000E94D603882309F441C0B801CE010E94AA
:100900000F288823D9F1B801CE010E940E25882333
:10091000A9F1B801CE010E941627882379F1B80108
:10092000CE010E94A722882349F1B801CE010E947E
:100930004726882319F1F8018281882361F0CA359E
:10094000FDE5DF0721F170F4C115ECE5DE07A1F04C
:10095000CE3DDC45C9F0C801DF91CF911F910F91C9
:100960000C94D203CB358DE5D807A1F0CC35DD450D
:1009700091F70E94C410EFCF0E94510480E0DF91F4
:10098000CF911F910F9108950E947D11F7CF0E9482
:10099000CD10E1CF0E94D010DECFCF93DF93D82FC0
:1009A000C92F61E00E940E046D2F7C2FDF91CF9143
:1009B0000C9460040E94382A0C94BF050E94C20562
:1009C0000C943C2ADF92EF92FF920F931F93CF93E8
:1009D000DF93E82FF0E0EC54FE4FD490282F2695BB
:1009E0002695269530E0F901EC5AFD4F0491877069
:1009F00010E0082E02C0159507950A94E2F70170E1
:100A00001127F901EC5BFD4FE490F12C082E02C098
:100A1000F594E7940A94E2F791E0E922FF24F901C2
:100A2000EC5CFD4FC491D0E002C0D595C7958A9586
:100A3000E2F7C170DD270115110519F081EE0E9462
:100A40005006E114F10419F086EE0E9450068D2D37
:100A50000E944E07EF2819F086EE0E94E106012B56
:100A600019F081EE0E94E106CD2B51F08CE2DF916E
:100A7000CF911F910F91FF90EF90DF900C944E0754
:100A8000DF91CF911F910F91FF90EF90DF9008952C
:100A9000EF92FF921F93CF93DF93EC01162F888183
:100AA000882309F453C0813009F04DC08981813019
:100AB000A1F47E0182E0E80EF11C8A810E944E07BB
:100AC000E7012196812F882351F3EFE9FFE0319769
:100AD000F1F700C000008150F6CF823041F47E0172
:100AE000E2E0EE0EF11C8A810E945006E9CF8330CD
:100AF00041F47E01F2E0EF0EF11C8A810E94E106D2
:100B0000DFCF843011F02196DCCF2A81229680E05D
:100B100090E0FE0131962053330B2A30310550F01E
:100B2000009779F2EFE9FFE03197F1F700C000009C
:100B30000197F6CF6AE070E00E947632820F931F31
:100B40002981EF01E6CF0E94E204BBCFDF91CF9174
:100B50001F91FF90EF90089560E00C944805089570
:100B60000C94AF0581E008950C94B2050895CF93DD
:100B7000C82F0E94B0058C2FCF910C94B40580E053
:100B80000C94B7050E94FE280C94B7050E94FE281D
:100B90009091A401981721F08093A4010C94B705BB
:100BA00008959C012115310509F408958FE99FE00E
:100BB0000197F1F700C0000021503109F3CF0F93E6
:100BC0001F93CF93DF93CDB7DEB72B970FB6F89473
:100BD000DEBF0FBECDBF4F835887262F69877A8728
:100BE0008B878A859B85892B29F0852F84238F3FCE
:100BF00009F047C021110E94D50F1E8225E0FE0199
:100C00003796CE010196DC0101900D922A95E1F70D
:100C1000209183038C0122FD12C080919803909152
:100C20009903892B61F00E948F0F882319F082E0CD
:100C30000E9493100E946A0F81110E940C108981FA
:100C40009A812C813D81232B99F449815A816B81B2
:100C50007C818D819E810E94B50E2B960FB6F894F3
:100C6000DEBF0FBECDBFDF91CF911F910F910895D1
:100C700089238F3F51F3C8010E9417048111E5CFEA
:100C8000ECCF8091A6019091A70101969093A701C6
:100C90008093A601AFCFFC01808191810C949E0BC3
:100CA000CF93C82F882309F48AC08238C1F40E94E8
:100CB000FE2881FD84C089E30E94530F0E941A1010
:100CC0002FEF31EE84E0215030408040E1F700C04A
:100CD000000089E30E945A0FCF910C941A108338B8
:100CE000A1F40E94FE2880FD6AC083E50E94530F94
:100CF0000E941A109FEF21EE34E0915020403040C6
:100D0000E1F700C0000083E5E5CF8438A1F40E943C
:100D1000FE2882FD54C087E40E94530F0E941A10DF
:100D20008FEF91EE24E0815090402040E1F700C029
:100D3000000087E4CFCF8CEF8C0F813A90F46C2FBA
:100D400080910001909101010E947429882329F06B
:100D50008C2F0E945A0F0E941A108C2F0E94530F42
:100D6000BBCF80E28C0F883048F4C77081E001C0AF
:100D7000880FCA95EAF70E94B30FAECF8BE58C0FB0
:100D8000833038F42C2F2452330BC901CF910C94AB
:100D90003429E8E5EC0FE73150F4F0E0EE0FFF1FE7
:100DA000E05EFE4F80819181CF910C944A29C03F33
:100DB00030F08C2F0E948016CF910C944717CF9162
:100DC0000895882309F452C0823871F40E94FE28E5
:100DD00081FF4CC089E30E94530F0E941A1089E3DF
:100DE0000E945A0F0C941A10833859F40E94FE285E
:100DF00080FF3CC083E50E94530F0E941A1083E5D8
:100E0000EFCF843859F40E94FE2882FF2FC087E478
:100E10000E94530F0E941A1087E4E2CF9CEF980FB4
:100E2000913AF0F290E2980F983050F4877091E088
:100E300001C0990F8A95EAF7892F0E94B90FD2CF86
:100E40009BE5980F933020F490E080E00C943429D7
:100E500098E5980F973120F490E080E00C944A29AF
:100E6000803F20F00E94D2160C94471708951F93DC
:100E7000CF93DF93182FEB010E945006209731F497
:100E8000812FDF91CF911F910C94E1068FE99FE0B4
:100E90000197F1F700C000002197F0CF6091B603F1
:100EA0007091B703893321F06091B4037091B50359
:100EB0000C943707882321F00E94B30F0C941A106A
:100EC0000895882321F00E94B90F0C941A100895F8
:100ED000882321F00E94C70F0C941A1008958823CC
:100EE00021F00E94CD0F0C941A10089590E080E03C
:100EF0000E94342990E080E00E944A290E94D50F88
:100F00000E941A100E947C180C9447170E94610FCF
:100F10000C9476070E94C10F0C948607282F929597
:100F20009F70963091F060F4925F9F70923030F431
:100F300081E0203F81F030F4283E30F080E00895D9
:100F40009A5FF3CF243FD1F7089581E0283EE0F384
:100F5000213FA1F7F9CF0895FC01808191810E9482
:100F60009E0B0C948E07AF92BF92CF92DF92EF92BE
:100F7000FF920F931F93CF93DF937C01EB01FC0152
:100F80001281058102950F700E94A90FC82E882337
:100F9000B9F0C12E1123A1F08D2F807F803421F074
:100FA00080E28C0F8830C8F08091830382FD15C0E9
:100FB00082E00E9493100E94A90F91E0C82EC926DA
:100FC0008D2F82958F70A82EB12C8C3008F07BC0AD
:100FD000F501E25CFC4C0C94AF32C12CF1CFFD2F3B
:100FE000FF70DF2E8D2F807F19F0D29490EFD922E1
:100FF000112399F0DD2059F080E28C0F883010F039
:10100000C11107C08D2D0E94B30F0E941A108C2FA2
:1010100052C08D2D0E94C70FF8CF8C2F0E94E10681
:10102000DD2009F450C080E28C0F883010F0C1112F
:1010300004C08D2D0E94B90F03C08D2D0E94CD0FCD
:101040000E941A1040C08D2F8F70D82E8D2F807F58
:10105000803219F0D29480EFD822CC23F1F0C13045
:1010600009F49EC0112309F4A5C0002309F47AC035
:1010700020E0F701408151816281738184810E9467
:10108000DB03B7010E945F228111C1CFF701858187
:1010900080FFBDCF8F70858365C08091830382FF01
:1010A00044C0112359F0DD2029F08D2D0E94B30F8B
:1010B0000E941A1080E00E94500605C080E00E9445
:1010C000E106D110B6CFF8E0AF1AB10884E0A81657
:1010D000B10420F40E94FE280E94B705CE010E94B0
:1010E0008E078111AAC11092A7011092A601CC20EF
:1010F00009F4C4C10E948B0F80FDC0C1F7011282A8
:101100000E94850F0E94DB0AC7010E94600A0E94AC
:10111000850FDF91CF911F910F91FF90EF90DF909E
:10112000CF90BF90AF900C94E60A1123E9F0011123
:1011300006C00E94D80F8D290E945A07C4CF0130E3
:1011400031F40E94D80F8D290E94F40FBCCF8091FA
:10115000B203823070F38013ECCF0E940C108D2DFF
:101160000E94DE0F8D2DE8CF011106C00E940C10E9
:101170008D2D0E946107A7CF8091B203013059F4F1
:10118000823008F4A0CF0E94B00F8D2109F49BCFCC
:101190000E94E70FEBCF823048F30813E7CF93CFDD
:1011A000112321F0063008F08ECFDCCF053008F097
:1011B0008ACFDECF0023E1F28091B6039091B7038E
:1011C000C93321F08091B4039091B5030E94D105F9
:1011D0008C2F0E94E10677CF8D2F869586958370A0
:1011E00061F0813009F06FCFCE019370111102C010
:1011F00090E080E00E944A2966CFCE0193701111E1
:1012000002C090E080E00E9434295DCF8C2F112332
:1012100029F00E9480160E94471755CF0E94D216CF
:10122000FACF8D2F837091F511114DCF9C2F929590
:1012300096959770990F990F4C2F4F70092E01C0FA
:10124000440F0A94EAF78C2F8071C4FF08C02FE086
:1012500030E001C0220F9A95EAF7822F80959D2FEA
:10126000969596959370842B923051F0933059F067
:10127000913019F00E94BC0A26CF0E94B70A23CFF2
:101280000E94C10A20CF0E94B50A1DCF112349F147
:10129000D0FF19CF9C2F929596959770990F990F23
:1012A0004C2F4F70092E01C0440F0A94EAF78C2F7F
:1012B0008071C4FF08C02FE030E001C0220F9A9572
:1012C000EAF7822F80959D2F969596959370842BA3
:1012D000923069F0933071F0913031F00E94020B3E
:1012E000F2CED1FFF0CED6CF0E94FD0AECCE0E9406
:1012F000070BE9CE0E94CA0AE6CEFD2FFF70DF2E53
:10130000112329F08F2F0E94DB0A8C2F15CF8C2FF1
:101310000E9461078D2D0E94E60AD5CEC23F41F1A1
:1013200060F4C03FB9F0C13F81F0112309F480C0DF
:1013300001116DCE8D2F8F711FC0C33F01F1C43FCE
:10134000A1F78091830382FF24C08D2F8F71112319
:1013500011F312C0112341F0053008F0B4CE8D2FE7
:101360008F710E94F20AAFCE063008F0ACCEF7CFF4
:101370008D2F8F711111CFCF0E94DB0AA4CE1123C4
:1013800029F08D2F8F710E94D30A9DCE0E94D00A22
:101390009ACE8091B2038230A0F11123F1F00E9425
:1013A000670F0E94B90F0E948B0F843041F40E9496
:1013B0008A108D2F8F710E94E60AC12C84CE8091F5
:1013C000B2030817D0F78D2F8F71D82E0E94DB0A39
:1013D00063E08D2D0E946D10F0CF0E94670F0E9478
:1013E000B30F8091B203081740F00E948A100E9448
:1013F000E70F64E08D2F8F71EDCF81E00E94931095
:10140000DCCF112359F0ED2FEF71DE2E8E2F0E94CD
:10141000DB0A63E08D2D0E946D1055CE81E00E94A5
:101420009310023008F44FCE82E00E9493104BCE0E
:101430000111C2CE8D2F8F716ECF112319F00111C2
:1014400052CE55CE01114FCE20E0F701408151819F
:101450006281738184810E94DB03B7010E946A224A
:10146000882309F440CE8091A6019091A7010297AC
:1014700009F039CE8C2F0E944E0735CEDF91CF91E7
:101480001F910F91FF90EF90DF90CF90BF90AF90A2
:1014900008950F931F93CF93DF93EC0168817981B7
:1014A0008A810E94AA0B8C010E940C0B0E94B40A34
:1014B000B801CE01DF91CF911F910F910C94B3072A
:1014C000CF93DF93EC01988189812B813C81232B81
:1014D00019F089238F3F59F4DF91CF910895CE0100
:1014E0000E94490ACE01DF91CF910C941904CE01DC
:1014F0000E94CD048111F3CF0E94A90F882361F3CC
:101500008A81882349F38091830382FDE5CF82E0BD
:10151000DF91CF910C949310CF93DF9300D000D044
:101520000F92CDB7DEB70F900F900F900F900F90E6
:10153000DF91CF910895CF93DF9300D000D000D0FA
:10154000CDB7DEB726960FB6F894DEBF0FBECDBF7F
:10155000DF91CF91089508950C94AB0A0E94AC0AD4
:101560008093B8010C94760708950C94AE0A90917C
:10157000B801892B0C94AE0A9091B80189230C9480
:10158000AE0A9091B80189270C94AE0A0C94AB0A6C
:101590000C94C60A0E94C80A8093B7010C9476077F
:1015A00080E00C94CA0A91E001C0990F8A95EAF78D
:1015B000892F0C94CA0A21E030E001C0220F8A95DD
:1015C000EAF78091B701822B0C94CA0A21E030E03F
:1015D00001C0220F8A95EAF720958091B7018223F6
:1015E0000C94CA0A21E030E001C0220F8A95EAF784
:1015F0008091B70182270C94CA0A9091B701892B78
:101600000C94CA0A9091B70189230C94CA0A90914C
:10161000B70189270C94CA0A0895382F892F262FDD
:101620009E3F71F16AE00E946D32830F982F977090
:1016300041E001C0440F9A95EAF786958695869514
:1016400090E063E070E00E947632FC01E855FE4FC6
:1016500090E080E0622F70E05191DF0111979B01D3
:10166000082E02C0369527950A94E2F7217021953D
:101670002527242325272C9301968330910561F794
:101680000895282F892F9E3F51F16AE00E946D3204
:10169000820FA82FA77086958695869590E063E0C7
:1016A00070E00E947632FC01E855FE4F50E040E0C9
:1016B00080E0219130E00A2E02C0369527950A94E9
:1016C000E2F721703327042E01C0220F0A94EAF7B3
:1016D000822B4F5F5F4F4330510559F7089580E0EB
:1016E0000895DF92EF92FF920F931F93CF93DF93B2
:1016F0007C010091B7018091B801082BC7E0D0E0D0
:1017000010E0DC2EC8010C2E02C0959587950A9436
:10171000E2F780FD0CC02197A0F7D12C8D2DDF9131
:10172000CF911F910F91FF90EF90DF900895B70137
:101730008C2F0E945C13019771F3F0CFCF93DF934E
:10174000D82FC92F0E94710B6D2F7C2FDF91CF9165
:101750000C945C131F93CF93DF93162FD72F909188
:10176000A501992339F0862F972FDF91CF911F91F3
:101770000C949E0B882391F0862F972F0E94710B5B
:10178000C82F682F812F9D2F0E940D0B612F7D2F59
:101790008C2FDF91CF911F910C945C13862F972F84
:1017A0000E94410BC82FF2CFCF93DF93C091B901B4
:1017B0008091BA018C1303C0DF91CF910895D0E0DE
:1017C000CE0166E070E00E947632FC01E554FE4FE7
:1017D0004081518162817381848195810E949B0A3D
:1017E0002196C770E5CF4091EB015091EC016091DB
:1017F000ED017091EE018091EF019091F0010C9458
:101800009B0A0F931F93CF93DF938091F001807F0A
:1018100031F48091ED01C091B901811116C0DF91C1
:10182000CF911F910F9108952091EB013091EC0120
:10183000A091EE01B091EF01D0E0109721F0832F3D
:1018400082238F3F39F42196C7708091BA018C139F
:10185000EBCFE5CFCE0166E070E00E947632FC016E
:10186000E554FE4F81813813EECF80818213EBCF98
:1018700082818111E8CF038114810A1B1B0B60E078
:101880008BEE91E00E940E046BEE71E00E945622F6
:1018900008171907C0F68091F0018F70806180935E
:1018A000F001CE0166E070E00E947632FC01E05467
:1018B000FE4F90819F70906190838BEE91E00E942B
:1018C000600ADF91CF911F910F910C94D40B4F922E
:1018D0005F926F927F928F929F92AF92BF92CF92C0
:1018E000DF92EF92FF920F931F93CF93DF93CDB7C9
:1018F000DEB72B970FB6F894DEBF0FBECDBF8C01BD
:1019000085E0F801DE01179601900D928A95E1F7C6
:10191000D8017C9011966C9011971296EC901297CA
:101920001396CD90DC9060E08BEE91E00E940E0467
:10193000582E492E8BEEA82E81E0B82E9091EB0107
:101940008091EC012091EE013091EF0121153105DC
:1019500021F089238F3F09F0AAC1EE2009F4A1C02C
:10196000C8010E94AC07F82E882309F49AC086E0CB
:10197000F801ABEEB1E001900D928A95E1F78BEEA4
:1019800091E00E944B060E94010C67C16BEE71E072
:10199000852D942D0E945B228111BFC1CD2829F095
:1019A000872D86218F3F09F0FFC080E0E82FE1708E
:1019B000DE2E2091B9014091BA0180FD1FC0EE20BA
:1019C00009F41CC18091F00181608093F001F12C39
:1019D00015C130E0C90166E070E00E947632FC017A
:1019E000E554FE4F8181861106C08081871103C0B6
:1019F00082818E11E4CF2F5F3F4F27702413E9CFF0
:101A00008F8198850E949E0B292F22952F709032EE
:101A100068F0225F2F70223080F49F7059F0D80157
:101A200015969C91907F31F4D12C0AC09F7011F0D3
:101A30008823D1F3805E8830B8F3C8010E94600A21
:101A4000FD2CDCC0452B29F0382F32233F3F09F015
:101A5000EDC0C8010E94AC07882319F1EE2009F1FE
:101A60008091F001803270F02091EB013091EC0117
:101A70003A8329831B82DD82CC828E83CE0101963C
:101A80000E94600A86E0F801ABEEB1E001900D9291
:101A90008A95E1F70E94010C0E94F30BFF24F39456
:101AA000ADC0C8010E94600AF9CF892F807F99F4E8
:101AB0004F81588569857A858B850E948C0A8BEECB
:101AC00091E00E94600A86E0D5011D928A95E9F7AF
:101AD0000E94F30B7CCF8091EB012091EC014091AF
:101AE000EE015091EF01452B09F4B3CF382F32238B
:101AF0003F3F09F4AECFF80131813213AACFF8018C
:101B000020812813A6CFE110A4CF9583C8010E949D
:101B1000600AEBEEF1E086E0DF011D928A95E9F7BD
:101B20006DC060E08BEE91E00E940E046BEE71E000
:101B30000E9456228816990650F5FE2CEE2009F4D4
:101B4000B0CF8091EB019091EC012091EE013091AA
:101B5000EF01232B29F0282F29232F3F09F080C0E4
:101B6000C8010E94AC0781118DCF8091F001816086
:101B70008093F001C8010E94600A40C086E0F8012D
:101B8000ABEEB1E001900D928A95E1F737C04F813D
:101B9000588569857A858B850E948C0A86E0F501D7
:101BA00011928A95E9F759C081E08E25FFCE8BEE20
:101BB00091E00E94600A86E0EBEEF1E0DF0185CF64
:101BC00081E08E25B3C0F801918192139CC0F80189
:101BD0009081981398C0E11096C08091F0018F70A9
:101BE00080618093F0010E94F30B8BEE91E00E94E4
:101BF000600A8091F001D80115968C938F2D2B9659
:101C00000FB6F894DEBF0FBECDBFDF91CF911F910D
:101C10000F91FF90EF90DF90CF90BF90AF909F908B
:101C20008F907F906F905F904F900895D80111969C
:101C30003C9132130ECFF801208128130ACFE11016
:101C400008CF9583C8010E94600A86E0F801ABEED8
:101C5000B1E001900D928A95E1F70E94F30BCECF8F
:101C6000D80111962C9129137BCFF80190819813FC
:101C700077CF6BEE71E0852D942D0E946422811147
:101C80007DCF8091F00180FD79CF982F907F09F46E
:101C900075CFD80115968C931597903F99F2982F90
:101CA000907F905F8F70892B15968C93CBCFF0909F
:101CB000ED014601821A930AFF2009F432CF60E059
:101CC0008BEE91E00E940E046BEE71E00E945622B2
:101CD0009C019091F0018216930608F0E6CE809167
:101CE000EB012091EC014091EE015091EF01392F71
:101CF000307F09F0A7CEFE2C452B29F0982F922398
:101D00009F3F09F060CF6BEE71E0852D942D0E940E
:101D10005622843F914008F439CEC114D10429F0F1
:101D2000872D86218F3F09F04BCF80E02091B901AC
:101D30004091BA0180FF32CE241709F42FCE30E053
:101D4000C90166E070E00E947632FC01E554FE4F66
:101D50008181861106C08081871103C082818E1126
:101D600026CF2F5F3F4F2770E7CFCF93DF93CDB7BD
:101D7000DEB72C970FB6F894DEBF0FBECDBF4F83F2
:101D8000588769877A878B879C87CE0107960E9440
:101D9000670C8823D1F08A859B85892B39F058857B
:101DA0004F81852F84238F3F09F076C08091B90140
:101DB0009091BA01891349C02C960FB6F894DEBFF2
:101DC0000FBECDBFDF91CF91089586E0FE0137961B
:101DD000DE01119601900D928A95E1F79F81288589
:101DE0008091BA014091B9016A857B85672BF1F238
:101DF00092239F3FD9F290E09C012F5F3F4F2770C5
:101E000033274217130671F40E948A071092BA0111
:101E10001092B90186E0EBEEF1E0DF011D928A95A8
:101E2000E9F7C4CF66E070E00E947632DC01A55489
:101E3000BE4F86E0FE01319601900D928A95E1F742
:101E40002093BA010E94D40BB1CF90E066E070E01D
:101E50000E94763285549E4F0E94670C882309F4B5
:101E6000ABCF8091B90190E066E070E00E947632DD
:101E7000FC01E554FE4F4081518162817381848170
:101E800095810E949B0A8091B90190E0019687702C
:101E900099278093B9018ACF69857A858B859C853E
:101EA0000E949B0A83CF682F8091000190910101CD
:101EB0000C94F829682F80910001909101010C94F5
:101EC000032A80910001909101010C940E2A8091C7
:101ED000160208958091980390919903892B91F0AF
:101EE0000E94B32A2091140230911502AC01421BCA
:101EF000530B9A0181E04091980350919903241764
:101F0000350708F480E0817008958091130285956B
:101F100085958595089580911302877008950E9494
:101F2000B32A2091110230911202821B930B20914F
:101F30009803309199038217930748F08091130218
:101F400082FB882780F991E089278170089580E0DD
:101F5000FCCF90911302977081E009F480E008951E
:101F600080913902089590913902982B909339020B
:101F70000895982F90958091390289238093390292
:101F80000895109239020895809138020895909131
:101F90003802982B909338020895982F909580914D
:101FA00038028923809338020895109238020895E8
:101FB00080911702089508950C94DB0F90911602FA
:101FC000981721F0809316020C94DC0F08958091ED
:101FD0001602882329F01092160280E00C94DC0F80
:101FE000089508950C94F10FCF93C82F8091830327
:101FF00082FD10C0809117028C1761F00E94B32AF5
:102000009093150280931402C09317028C2FCF91E6
:102010000C94F20FCF91089580911702882349F014
:1020200010921702109215021092140280E00C9484
:10203000F20F0895CF93DF93E0910001F091010139
:10204000809139028083E0910001F091010180814B
:1020500090913802892B8083809117028823E9F0C0
:102060008091980390919903892B29F00E946A0F1F
:1020700081110E940C10E0910001F091010180811A
:1020800090911702892B808380910001909101012A
:102090000E94602981110E940C10C0910001D09112
:1020A000010140E250E061EF71E0CE010E94C532D3
:1020B000892B69F080E2FE01A1EFB1E001900D9261
:1020C0008A95E1F7CE01DF91CF910C940A29DF9137
:1020D000CF91089508950C946A10962F2091830350
:1020E00022FD16C0682F660F660F660F692B60937E
:1020F00013020E94DB0A0E94B32A9093120280937B
:102100001102809113028595859585950C946B102D
:102110000C94DB0A10921302109212021092110218
:1021200080E00C946B10909113028095892380932A
:102130001302282F277091F4282F082E000C330B40
:102140009217130659F09091830392FD07C085956D
:10215000859585950E94E60A0C948A1008959091C1
:10216000830392FB222720F9281769F080FB92F95C
:102170009093830380918203909183030E94FA10CD
:1021800082E00C94931008958091830382FB88274A
:1021900080F991E089270C94AF1081E00C94AF1086
:1021A00080E00C94AF106FEF7FEF90E080E00C9434
:1021B0001E3390E080E00E94FA32893E9E4F11F477
:1021C0000C948A1880E0089582E090E00C94F2323A
:1021D00083E090E00C94F232CF9384E090E00E9490
:1021E000F232C82F82E290E00E94F232982F8C2FB8
:1021F000CF910895CF93682FC92F84E090E00E947B
:1022000000336C2F82E290E0CF910C940033AB014D
:10221000BC018FE090E00C941233AB01BC0183E170
:1022200090E00C94123360E070E0CB010C940D113F
:1022300060E070E0CB010E9407110C94131169EE6D
:102240007EEF90E080E00E941E3360E082E090E04C
:102250000E94003360E083E090E00E94003310921F
:10226000B80160E084E090E00E94003360E082E228
:1022700090E00E94003360E085E090E00E9400332F
:1022800060E086E090E00E9400336FEF87E090E02E
:102290000E94003340E050E0BA0188E090E00E94E4
:1022A000123360E08DE090E00E94003340E050E0A7
:1022B000BA0188E190E00E94123360E087E190E08B
:1022C0000E94003340E050E0BA018CE190E00E94AF
:1022D000123370E060E080E290E00E941E3340E044
:1022E00050E0BA0188E190E00E94123380E00E9441
:1022F000A3180E94DC180C9418110C941F11682F5D
:102300008EE090E00C9400330E94BF2A6093460256
:10231000709347028093480290934902609342026F
:102320007093430280934402909345020895089568
:1023300008950C94981108950C949B118BE394E1EB
:102340000E94F4280E945E1C0E9460210E94971146
:102350000C94991181E008950C94AA1108950895A0
:102360000E94AE110C94AF110E9455140C94B60546
:102370000E94AA2A0E94EB180E9441150E94B411E3
:102380000C949C117F928F929F92AF92BF92CF92AA
:10239000DF92EF92FF920F931F93CF93DF9300D0C2
:1023A00000D00F92CDB7DEB70E945615B82E81111E
:1023B0000E9484115AE3852E52E0952E10E000E031
:1023C000702E802F0E948B147C01F401C190D1905B
:1023D0004F01C816D90609F452C080914A0281FD06
:1023E0000E949414C6018E259F25A12CCC24C39451
:1023F000D12C9C012C213D21232BD9F10E94AC1121
:102400008823A9F0A9827A82EC20FD2081E0EF28C0
:1024100009F480E08B830E94B32A8160782F9D832A
:102420008C8349815A816B81892F0E94DF05000FBF
:10243000111FF801E65CFD4F808191818C259D255F
:102440009183808381E0B11001C080E00F900F90F4
:102450000F900F900F90DF91CF911F910F91FF90F0
:10246000EF90DF90CF90BF90AF909F908F907F9034
:102470000895A394CC0CDD1CFAE0AF12BACF0F5F25
:102480001F4F0430110509F09BCF8FEF89838A839A
:102490001B820E94B32A8160782F9D838C8349819F
:1024A0005A816B81892F0E94DF05CCCF0E9474284E
:1024B0000C94D5240E94C2110E9456120E946117EA
:1024C0000C94C605CF93DF930E946013EC01811535
:1024D000924508F05EC0C11581E5D80708F0BDC07F
:1024E000C83ED105F8F4C03ED10578F4C83AD1050C
:1024F00080F4C53AD10508F09FC0C130D10529F05C
:10250000CE010497813A910550F4CE01DF91CF912D
:102510000895CE01885A9109479708F490C0D0E0F9
:10252000C0E0F3CFC11590E5D907A0F4C11520E4B0
:10253000D20708F08FC0CF3FD10509F028F4C03F83
:10254000D10568F3D065E1CFCE019A9581159F4101
:10255000E0F2E5CF9E01B4E036952795BA95E1F714
:1025600023708C2F86958695837090E0D5E0880F38
:10257000991FDA95E1F7922BC37021E030E002C099
:10258000220F331FCA95E2F7822B932BEC01DC68F4
:10259000BCCFC11586E5D80740F5C11595E5D9072B
:1025A00008F071C0C11524E5D207D0F48C2F8695B0
:1025B00086959E0123703327C115D34508F052C07C
:1025C000C1E0D0E002C0CC0FDD1F2A95E2F790E019
:1025D000A5E0880F991FAA95E1F7C82BD92BD7CF73
:1025E000DC2FCC27C46FD06A90CFC1152AE5D20763
:1025F00088F4C11589E5D80708F050C0CE01985578
:102600008F3F910511F008F08ACFDC2FCC27C06FE7
:10261000D06A7BCFCE0190568115904208F07FCFD3
:102620008D2F8F710E94F81390E0982F88278827AC
:102630009F718C2BEC0130C0A497D06466CFC85A30
:10264000D0E0CC0FDD1FC25BDE4F0990D881C02DDA
:10265000D4645BCFDF70D06A58CFDC2FCC27C16F3A
:10266000D06A53CFC1E0D0E002C0CC0FDD1F2A9565
:10267000E2F790E065E0880F991F6A95E1F7C82BB3
:10268000D92BDA6842CF8C2F0E94F813C82FD0E0E4
:10269000DC2FCC27CC27DF71D06237CF8C2F8F7007
:1026A0000E94F81334E0D695C7953A95E1F7CF70BC
:1026B0009C2FEC01D06929CF0E9408200C94621253
:1026C000803E910599F1C8F48133910509F476C0F3
:1026D00048F48932910509F46AC08A32910509F4F7
:1026E00074C0089589339105D1F082389105B9F00D
:1026F0008533910509F454C00895843E910599F1FC
:1027000038F4823E9105F9F0833E910509F1089570
:10271000863E910599F1873E9105B9F10895209182
:1027200082032370A1F080EE90E00895209182034F
:1027300020FD52C03091830330FF09C024FF4FC0F9
:1027400090E080E004C02091820322FDF7CF08953D
:102750002091820322FD46C03091830330FDE3CFF8
:1027600024FFF5CFEDCF2091830321FFF0CF80919F
:10277000820384FDE5CF87EE90E0089520918203E7
:1027800023FFE5CF24FDDCCFF6CF2091820323FD8C
:102790002CC03091830331FFE3CF84EE90E00895A5
:1027A0002091820325FFD3CF89E290E00895209104
:1027B000820325FFCCCF85E390E00895209182032A
:1027C00026FFC5CF8AE290E008952091820326FF7C
:1027D000BECF81E390E0089589E390E0089583EE11
:1027E00090E0089582EE90E0089586EE90E00895DE
:1027F0009091820392FF06C0282F28712830F9F4A7
:10280000877F846093FF06C0282F28712831F1F458
:10281000877E84612091830320FF06C0382F3871A2
:102820003830D9F4877F816021FF06C0282F2871B6
:102830002831D1F4877E816194FD877E0895282F09
:1028400024712430F9F68B7F8860DCCF282F247127
:10285000243101F78B7E8861DDCF382F3171313023
:1028600019F78E7F8860E0CF282F2171213121F761
:102870008E7E8861E1CF80E008950C94D3100E9491
:1028800056158FE39CE90197F1F700C000000E9404
:10289000561580E00E948B1480FF04C00E943D14F6
:1028A0000C94122B08950C943F140E94D91081119E
:1028B00002C00E947D110E94E41080934A020E948F
:1028C000EC1090938303809382030E9453140E9420
:1028D000E8100E94B50A8091B7010C94C80A0895C7
:1028E0000C946F1408950C947214E82FF0E0EE0F1E
:1028F000FF1FE457FC4F21E030E002C0220F331FDE
:102900006A95E2F7808191812823392381E0232B86
:1029100009F480E00895E82FF0E0EE0FFF1FE45780
:10292000FC4F808191810895089580EA8A95F1F79E
:10293000089500C008950C949514F894E82FE2953A
:10294000EF70F0E041A18F7021E030E0B90102C0EA
:10295000660F771F8A95E2F7CB01962F9095942307
:1029600091A392A1892B82A378940895CF93DF93AA
:1029700086E90E949D1485E90E949D1480E30E94CF
:102980009D1481E30E949D14CCE7D1E089918F3F93
:1029900011F00E949D1481E0C638D807B9F7DF9185
:1029A000CF910895AF92BF92DF92EF92FF920F9373
:1029B0001F93CF93DF93EC01D62E062F10E0C801B2
:1029C0008A579E4F7C01FC0180818F3F09F44FC0E4
:1029D000F894E82FE295EF70F0E091A18F7021E07C
:1029E00030E001C0220F8A95EAF7892F822B81A35C
:1029F00082A12095282322A378940E949914ECE7C1
:102A0000F1E066E871E041E050E0B12CA12C2191A9
:102A10002F3F81F0A22FA295AF70A05EB0E08C9105
:102A200090E02F7002C0959587952A95E2F79A015C
:102A300080FF02C020E030E0A22AB32A440F551FD5
:102A40006E177F0721F7F70180818F3F11F00E94F9
:102A50009D1461E0A114B10409F460E08D2D0E9481
:102A60009B14000F111FC00FD11FB982A882DF91E4
:102A7000CF911F910F91FF90EF90DF90BF90AF909B
:102A800008950E94B61488E0ECE8F3E0DF01982F87
:102A90001D929A95E9F7E4E8F3E0DF011D928A952B
:102AA000E9F784E00E94A4150C944C04FF920F9364
:102AB0001F93CF93DF93CDB7DEB728970FB6F89467
:102AC000DEBF0FBECDBFFE01319688E0DF011D9253
:102AD0008A95E9F710E0FE2E0F2F612F8F2D902F92
:102AE0000E94D2141F5F1430C1F748E050E06F2DF0
:102AF000702F84E893E00E94C5329C0111E0892B7D
:102B000009F410E0232B49F088E0EF2DF02FA4E822
:102B1000B3E001900D928A95E1F7212F44E06CE833
:102B200073E084E893E00E94A5150E944E04812F73
:102B300028960FB6F894DEBF0FBECDBFDF91CF91C0
:102B40001F910F91FF9008950895FF920F931F9387
:102B5000CF93DF93F82E092F162FD72FC42F2223C0
:102B600049F081E080934D020E94B32A90934C0279
:102B700080934B0280914D028823A1F080914B02FB
:102B800090914C020E94DF2A059760F0EF2DF02F04
:102B9000A12FBD2F90E080E0D0E08C179D0744F07E
:102BA00010924D02DF91CF911F910F91FF900895E8
:102BB000219131912D933D930196EFCF0E94F62CF8
:102BC0000E94B8110C94022D0E94062D0E945A12E8
:102BD0000C94202D0E94532A0E94DD2C0E949E11ED
:102BE0000E94DE150E94E4150E94B011FBCF809177
:102BF000540220919E0330919F0380FF13C0809167
:102C0000070190E0B9010E9476329C013695279524
:102C10003695279520383105A0F52115310599F114
:102C2000822F089581FF0AC08091070190E0B901C9
:102C30000E9476329C0136952795ECCF82FF08C022
:102C40008091070190E0B9010E9476329C01E2CFA9
:102C5000809153028823F1F24091060160910701AF
:102C600070E0841710F0C901EFCF90E00E94763237
:102C7000B9010E947632642F70E00E9487329B0176
:102C8000C9CF8FE7089581E008958091540280FFB5
:102C90000CC06091030170E0759567957595679517
:102CA0006115710559F1862F089581FF06C0609165
:102CB000030170E075956795F3CF6091030170E0B3
:102CC00082FD0CC0609152026623A9F0209102019E
:102CD0008091030190E0621730F0BC01603871050B
:102CE000F8F28FE7089570E00E947632622F70E06C
:102CF0000E949B32F3CF61E070E0D5CF81E0089570
:102D0000805F803108F045C0E82FF0E0E65BFC4CC6
:102D10000C94AF320E94F715819580935802089564
:102D20000E94F715FACF0E94F715819580935702FC
:102D300008950E94F715FACF0E9445168093590214
:102D400008950E9445168195F9CF0E9445168195F8
:102D500080935A0208950E944516FACF8091560238
:102D60008160809356020895809156028260F9CF67
:102D7000809156028460F5CF809156028860F1CF31
:102D8000809156028061EDCF8091540281608093E2
:102D900054020895809154028260F9CF80915402C8
:102DA0008460F5CFE82F309158022091570290911E
:102DB000590280915A02E03FA1F437FD1092580267
:102DC0008091570290915802892B11F4109253026E
:102DD0008091590290915A02892B11F4109252025B
:102DE0000895E13F19F413164CF3EACFE23F29F4BA
:102DF00027FFE6CF10925702E3CFE33F19F41216F4
:102E0000CCF3DECFE93F29F41916D4F6109259021B
:102E1000D7CFEA3F19F497FFD3CFF8CFEB3F29F490
:102E200087FFCECF10925A02CBCFEC3F19F4181681
:102E3000CCF3C6CFE45FEC3008F0C2CFF0E0E65A46
:102E4000FC4C0C94AF32809156028E7F80935602D8
:102E5000B7CF809156028D7FF9CF809156028B7F3C
:102E6000F5CF80915602877FF1CF809156028F7EF9
:102E7000EDCF809154028E7F80935402A1CF809138
:102E800054028D7FF9CF809154028B7FF5CF0E9441
:102E9000B32A2091570230915802232B21F08093BE
:102EA0005002909351022091590230915A02232BE3
:102EB00021F080934E0290934F0285E592E00C94AE
:102EC0002529CF92DF92EF92FF920F931F93CF931A
:102ED000DF9300D000D000D0CDB7DEB726E0E5E527
:102EE000F2E0CE010196DC0101900D922A95E1F706
:102EF000C0905702D0905802E0905902F0905A02C8
:102F000010925702109258021092590210925A02CF
:102F10002C2D2D298C0191F080915002909151021D
:102F20000E94DF2AFC0120915302222309F440C0B1
:102F3000809108018E171F0608F449C08E2D8F2935
:102F400091F080914E0290914F020E94DF2AFC0185
:102F500020915202222309F47DC0809104018E1732
:102F60001F0608F486C08091570290915802892B61
:102F700090915902892B90915A02892B11F00E944D
:102F8000471786E0F801A5E5B2E001900D928A9519
:102F9000E1F726960FB6F894DEBF0FBECDBFDF91E6
:102FA000CF911F910F91FF90EF90DF90CF900895F8
:102FB0008091090190E06AE070E00E9476328E17FD
:102FC0009F0708F0BBCF2F5F2093530202C02F3F13
:102FD000D1F7CC2051F00E94F7156FEF1C140CF4C0
:102FE00061E00E946D3280935702DD2051F00E9413
:102FF000F7156FEF1D140CF461E00E946D328093A1
:10300000580280915702882309F498CF20915802E2
:10301000222309F493CF082E000C990B65EB70E086
:103020000E947632992371F090935702822F220FDB
:10303000990B65EB70E00E947632992339F09093FA
:1030400058027CCF81E080935702F0CF81E08093DB
:10305000580274CF8091050190E06AE070E00E9410
:1030600076328E179F0708F07ECF2F5F2093520293
:1030700002C02F3FD1F7EE2051F00E9445166FEFAE
:103080001E140CF461E00E946D3280935902FF20FF
:1030900051F00E9445166FEF1F140CF461E00E947E
:1030A0006D3280935A028091590220915A028823EE
:1030B00009F459CF222309F456CF082E000C990B9E
:1030C00065EB70E00E947632992371F0909359027B
:1030D000822F220F990B65EB70E00E9476329923C4
:1030E00039F090935A023FCF81E080935902F0CF9C
:1030F00081E080935A0237CF86E0E5E5F2E0DF0118
:103100001D928A95E9F71092530210925202109282
:103110005402089583E290E00E94F2328C3C89F4DC
:1031200084E290E00E94F2328B3159F485E290E023
:103130000E94F23291E08F3F09F090E0892F817078
:10314000089580E0FCCFCF93C82F6FEF81116CEC16
:1031500083E290E00E9400336FEFC1116BE184E2E3
:1031600090E00E9400336FEF85E290E0CF910C94E5
:1031700000330895CF93DF9300D000D0CDB7DEB7F2
:1031800086E290E00E94F232282F30E050E040E0EA
:10319000CA01B9010F900F900F900F90DF91CF915E
:1031A00008950895CF93C62F0E94D1186C2F86E200
:1031B00090E0CF910C94003380E00E94A31860E06F
:1031C00070E0CB010E94D2180E94DF1E0E94702086
:1031D00081E00C94A3180E94B9180E94BA180E94AA
:1031E000D1180E948A18811102C00C94DC1808952D
:1031F000CF939C01FB01C281CC2301F182519F45F9
:10320000409720F58EEE820F0E948020C0E08C2F28
:10321000CF91089581E00E94DB0A43E062E081E003
:103220000E944304F3CF81E00E94E60A43E062E09B
:1032300081E00E944304EBCF82E0F6CF80319F45CE
:1032400091F321313F45C1F3C1E0E1CF2031EFE5FA
:103250003E0701F382E021313F45E9F2D8CF2FEF5D
:10326000FC0120830895EF92FF920F931F93CF9359
:10327000DF93CDB7DEB72E970FB6F894DEBF0FBE43
:10328000CDBF8D839E83162FAD81BE81EC91809141
:10329000210390912203892B79F0EE3F31F51196AD
:1032A0008C91833018F085508330F8F4612F8D8134
:1032B0009E810E94601C19C0E43150F4EE2351F04D
:1032C000E150E33138F4F0E0EA59FC4C0C94AF32B1
:1032D000EE3F61F3612F8D819E810E942F1905C001
:1032E000ED81FE81118289E08283612F8D819E8133
:1032F0002E960FB6F894DEBF0FBECDBFDF91CF91F3
:103300001F910F91FF90EF900C94CE2BAD81BE8159
:1033100011968C91823099F0833011F18130D1F681
:103320000E94BF2A0E94B5326F83788789879A8767
:10333000ED81FE816283738384839583D6CF0E945F
:10334000BA180E94B5326B877C878D879E87AD81C6
:10335000BE8112966D937D938D939C931597C5CFE7
:103360008091230390912403892B09F4BECFED8033
:10337000FE8000E0802F0E948B14F70192838383EC
:103380000F5FF2E0EF0EF11C0430A1F7AECFAD817C
:10339000BE8111968C911197823009F09BCF1296C5
:1033A0008D919D910D90BC91A02D89839A83AB83C3
:1033B000BC83BC01CD010E94B5320E94D21895CFCA
:1033C000ED81FE814381628181810E94541E982794
:1033D00089279827AD81BE8115969C938E9314976B
:1033E00084CFED81FE812481358132272327322746
:1033F0004381628181810E94761E77CF0E94DF1E09
:1034000074CF8FEFAD81BE818C936FCF0E9424204B
:10341000ED81FE81818369CF0E942620982789272C
:103420009827AD81BE8112969C938E9311975DCFA4
:10343000ED81FE81218132819381692F70E09D3180
:1034400008F053CFAF014C5F5F4F922F832F0E9444
:1034500029204BCF8091230390912403892B09F4D9
:1034600044CFAD81BE8111962D913C911297139658
:103470009C911397692F70E09D3108F036CFAD0114
:103480004C5F5F4F922F832F0E944D202ECF0E94C2
:1034900070202BCF0E943B1EBBCFAD81BE81119609
:1034A0002D913C91129713969C911397692F70E080
:1034B0009D3108F01ACFAD014C5F5F4F922F832FE3
:1034C0000E945B1F12CFED81FE81218132819381A9
:1034D000692F70E09D3108F008CFAF014C5F5F4F5E
:1034E000922F832F0E947E1F00CF80912303909103
:1034F0002403892B09F4F9CE8D819E810E94CE2B65
:10350000FFEF21EE84E0F15020408040E1F700C061
:1035100000000E94122BE9CE8F929F92AF92BF9231
:10352000CF92DF92EF92FF920F931F93CF93DF938F
:10353000CDB7DEB72A970FB6F894DEBF0FBECDBF6A
:103540000BE512E0F12CE12C86EBC82E8BE1D82E96
:1035500090EEA92E9BE1B92E2FE0822E2BE1922E28
:10356000F801D182C082B382A28295828482F58AD8
:10357000E48ABE016F5F7F4F8E2D0E94AF1E892BA4
:1035800029F489859A85F801938B828BFFEFEF1AD6
:10359000FF0A0A5E1F4F88E0E816F10409F72A9631
:1035A0000FB6F894DEBF0FBECDBFDF91CF911F9154
:1035B0000F91FF90EF90DF90CF90BF90AF909F90D2
:1035C0008F900895CF93DF9300D000D00F92CDB7A6
:1035D000DEB79093950380939403811520E29207C0
:1035E00048F40F900F900F900F900F90DF91CF91B4
:1035F0000C94BD038EEF89838A831B820E94B32AB9
:103600008160782F49815A816B81892F0F900F90AB
:103610000F900F900F90DF91CF910C94DF050F93D7
:103620001F93CF93DF938C01EB016BE073E08C2F42
:103630000E94AF1E892BA1F48091B4039091B50331
:10364000009799F4DD27CB5EDC4F8881F80110826A
:103650001882833049F188F4813099F08230C1F0CA
:10366000DF91CF911F910F910895EFE9FFE031971E
:10367000F1F700C000000197E3CF8430D1F085302E
:1036800079F780910B0390910C03009749F306C0E2
:1036900080910D0390910E03009799F3DF91CF91E4
:1036A0001F910F910C94E21A80910F0390911003D7
:1036B000F3CF8091110390911203009779F7209135
:1036C0000B0330910C0380910D0390910E03211593
:1036D0003105D9F2009711F7C901E0CFCF93DF93FD
:1036E00000D000D00F92CDB7DEB7909395038093B2
:1036F0009403811520E2920748F40F900F900F90E9
:103700000F900F90DF91CF910C94A8038EEF8983D7
:103710008A8381E08B830E94B32A8160782F49815C
:103720005A816B81892F0F900F900F900F900F90FF
:10373000DF91CF910C94DF05CF93DF93D82FC92F62
:103740000E946E1B8091B4039091B503009731F4F1
:103750008D2F9C2FDF91CF910C94E21AEFE9FFE0BF
:103760003197F1F700C000000197F0CF0F931F933E
:10377000CF93DF938C01862F6BE073E00E94AF1E26
:10378000892BC9F4C0910B03D0910C03209799F0B9
:10379000F8018081833069F4CE010E949C1BCE0128
:1037A0000E949C1BCE01DF91CF911F910F910C9431
:1037B0009C1B8430B8F7DF91CF911F910F91089532
:1037C0000F931F93CF93DF938C01EB016BE073E0BA
:1037D0008C2F0E94AF1E892B09F063C0FE01FF27CA
:1037E000D8018C91EB5EFC4F8130D1F419968C910D
:1037F000199781115BC01A968C91882309F456C0E1
:1038000082E0808380910D0390910E030097D9F49C
:1038100080910B0390910C03009709F442C013C0F0
:103820008230E9F519968C91199781112DC01A965D
:103830008C9181110EC083E0808380910F03909161
:103840001003009719F1DF91CF911F910F910C9404
:103850006E1B84E080838091110390911203009786
:1038600091F780910B0390910C03009711F10E9446
:103870009C1B80910D0390910E03009721F780917E
:103880000B0390910C03DFCF85E0808380910B03C5
:1038900090910C03009729F00E949C1BF0CF86E0CA
:1038A0008083DF91CF911F910F91089581E08083F4
:1038B000AFCF80910D0390910E03AECF0C948C1A74
:1038C000DF92EF92FF920F931F93CF93DF93CDB7C9
:1038D000DEB72A970FB6F894DEBF0FBECDBF8C01BE
:1038E000603239F5DC011196EC911197EE3008F554
:1038F000F0E0E758FC4C0C94AF3288E0EAE8F1E0E5
:10390000DE01119601900D928A95E1F7F80131964A
:103910008FE1DF011D928A95E9F784E0F801808349
:1039200088E0FE013196D801149601900D928A9597
:10393000E1F72A960FB6F894DEBF0FBECDBFDF9138
:10394000CF911F910F91FF90EF90DF90089584EA3F
:103950008C9381E011968C93119712961C9212977A
:1039600013961C92E6CFFC01838190E0982F882764
:103970002281820F911D092E000CAA0BBB0B35E092
:10398000880F991FAA1FBB1F3A95D1F7AC01BD0143
:10399000405E5F4F6F4F7F4F481759076A077B079D
:1039A00040F2843AF1E09F07A105B10510F6453ACF
:1039B00021E052076105710520F044EA51E060E022
:1039C00070E0481B590BBC016C597D4FC8012A9609
:1039D0000FB6F894DEBF0FBECDBFDF91CF911F9120
:1039E0000F91FF90EF90DF900C94BC3240E250E0DA
:1039F0006FEF70E00E94DB3280912303D8018C933B
:103A00008091210311968C93119712961C92129714
:103A100013961C92139714961C92149781E0159696
:103A20008C9387CF81E090E09093220380932103D1
:103A300082E390E09093200380931F030E94B32AB7
:103A400090931E0380931D0374CF80912103909166
:103A50002203892B91F160E080E00E947514E82E2A
:103A600061E080E00E947514F82E80911D03909112
:103A70001E030E94DF2A8536910550F1EE2041F1A8
:103A8000FF2031F10E94B32A90931E0380931D03FF
:103A900080911F03909120030197909320038093BE
:103AA0001F03892B51F4109222031092210381E00D
:103AB00090E0909324038093230380912303F801E3
:103AC000808380912103818380911F03828331CF82
:103AD00082E390E09093200380931F03EECF109237
:103AE00024031092230325CF40E250E0BC0112963C
:103AF0008D919C912A960FB6F894DEBF0FBECDBF74
:103B0000DF91CF911F910F91FF90EF90DF900C9478
:103B1000C221BC016F5F7F4F4FE150E0FC01828109
:103B200093810E94F421D8018C9303CFBC016C5F78
:103B30007F4F4CE150E0FC01828193810E94222260
:103B4000F2CF2A960FB6F894DEBF0FBECDBFDF913D
:103B5000CF911F910F91FF90EF90DF900C948521F2
:103B6000FC018281813071F0823019F18111E1CE46
:103B700031968FE1DF011D928A95E9F788E0F8011F
:103B80008083D7CE13968C919AE0D92EFE01319680
:103B90007F01DF01ED2D1D92EA95E9F7B7010E9443
:103BA000AF1ED8018D93F70101900D92DA94E1F7E1
:103BB000C0CE13968C919AE03496DE011196019056
:103BC0000D929A95E1F7BE016F5F7F4F0E94C71E6D
:103BD000F80180830E948C1AACCECF93DF93EC0166
:103BE000FB01828181112FC0D755CF3FD10509F04C
:103BF00050F56BE073E08C2F0E94AF1E892B19F5F6
:103C0000CE0166E170E00E947632FC01E55AFD4F7C
:103C100086818130E1F480910B0390910C03892B14
:103C200091F080910D0390910E03892B61F08091AA
:103C30000F03909110032091110330911203822BF6
:103C4000932B892B61F081E0DF91CF910895823031
:103C5000D1F780910F0390911003892BA1F3CE012E
:103C600066E170E00E947632855A9D4FFC01108A11
:103C70000E946B27E8CF84E00895E82F862F90E01C
:103C800064E170E00E94763250E0440F551F9C01C1
:103C9000240F351F8E2F90E060E570E00E94763291
:103CA000820F931F879608950F931F93CF93DF93EF
:103CB000982F962B9430B8F44A30A8F40E943D1EF9
:103CC0008C010E94F232C82FD0E0DC2FCC27C80133
:103CD00001960E94F2329E01282BC901DF91CF91FB
:103CE0001F910F91089590E080E0F8CF0F931F93FC
:103CF000CF93DF93E901982F962B9430D0F44A307C
:103D0000C0F421153C4531F4209123033091240364
:103D1000232B79F00E943D1E8C016D2F0E940033F1
:103D20006C2FC8010196DF91CF911F910F910C94D8
:103D30000033DF91CF911F910F9108958232910549
:103D400020F489599E4F0C94F23280E0089582321B
:103D5000910520F489599E4F0C9400330895362F15
:103D6000272F883088F490E06AE070E00E94763275
:103D7000BC0167577E4F4AE050E0832F922F0E948C
:103D8000E23290E080E008958FEF9FEF0895362FA4
:103D9000272F883088F490E06AE070E00E94763245
:103DA000BC0167577E4F4AE050E0832F922F0E945C
:103DB000243390E080E008958FEF9FEF08958F9275
:103DC0009F92AF92BF92CF92DF92EF92FF920F93AA
:103DD0001F93CF93DF93CDB7DEB72A970FB6F89432
:103DE000DEBF0FBECDBF809023039090240381E0FF
:103DF00090E09093240380932303F12CE12CC701DE
:103E000068E270E00E9476328C01B12C15C0F60198
:103E1000259134914A2D6B2D8E2D0E94761E22E025
:103E2000C20ED11CA3943AE0A312F1CF065F1F4F3C
:103E3000B39484E0B81649F0C801880F991F9C011B
:103E40002C583F4F6901A12CE2CF3FEFE31AF30A50
:103E500084E0E816F10499F60E9485211A821982FD
:103E60001C821B821E821D8218861F8288EC90E0B5
:103E70009A87898710E0BE016F5F7F4F812F0E9474
:103E8000C71E1F5F1830B9F7909224038092230356
:103E90002A960FB6F894DEBF0FBECDBFDF91CF914B
:103EA0001F910F91FF90EF90DF90CF90BF90AF9058
:103EB0009F908F900895EF92FF920F931F93CF934F
:103EC000DF938C01EA017A01E60EF71EC80187969E
:103ED000CE15DF0539F4DF91CF911F910F91FF903F
:103EE000EF900895003421E0120730F40E94F2327E
:103EF00089930F5F1F4FEACF80E0FACF6F927F92D6
:103F00008F929F92AF92BF92CF92DF92EF92FF92E9
:103F10000F931F93CF93DF93EC017B018A018034D1
:103F20009140C8F480E491E08C1B9D0B86179707A5
:103F300090F03E0137E2630E711C80912303909153
:103F40002403892BB9F0E00EF11ECE0187960E15E1
:103F50001F0509F051C0DF91CF911F910F91FF9084
:103F6000EF90DF90CF90BF90AF909F908F907F9019
:103F70006F9008956E0181E0C822DD24C0FF0FC05C
:103F8000CE0186960E94F232F80190818927982707
:103F9000892781159C4519F48FEFF8018083CE01A4
:103FA0008E0D9F1D570180FF13C0F1E0AF1AB108BD
:103FB00048018A0C9B1CC3018E0D9F1D0E94F2328A
:103FC000F401908181159C4519F48FEFF4018083F1
:103FD000F801EC0DFD1D2FEFCA14DB0408F0B3CF80
:103FE0009081818181159C4511F42083218382E099
:103FF000C80ED11C3296F0CFC034E1E0DE0720F4C9
:10400000F80160810E9400330F5F1F4F21969DCF02
:10401000462F672F2091210330912203232B89F40F
:104020007E3F39F44E3F69F480919403909195035B
:104030000895982F972B943020F44A3010F40C9464
:10404000541E90E080E0089580E1089587E292E0B8
:104050000895EF92FF920F931F93CF93DF938C01FC
:10406000EA017A01E60EF71EC80187529E4FCE156F
:10407000DF0539F4DF91CF911F910F91FF90EF9001
:104080000895073222E0120730F40E94F232899339
:104090000F5F1F4FE9CF80E0FACFEF92FF920F93AF
:1040A0001F93CF93DF938C01EA017A01E60EF71E8E
:1040B000C80187529E4FCE15DF0539F4DF91CF91AD
:1040C0001F910F91FF90EF900895073222E01207A1
:1040D00018F468810E94003321960F5F1F4FE8CFCC
:1040E000CF93DF93C9EDD1E060E0CE010E940033B1
:1040F0002196C11584E0D807B9F7DF91CF910895D3
:10410000CF92DF92EF92FF920F931F93CF93DF93A3
:1041100000D000D0CDB7DEB7F82E2FE0281740F042
:104120008FEF93E00E94F23209ED11E08823C9F08D
:104130000F900F900F900F90DF91CF911F910F91E3
:10414000FF90EF90DF90CF900895011544E01407A1
:1041500079F3C8010E94F232811101C0FA940F5F15
:104160001F4FF110F2CF80911C0190911D01A09181
:104170001E01B0911F0189839A83AB83BC837801B0
:104180005FEFE51AF50AC8010E94F23289831A82AC
:10419000882371F2813009F046C0680182E0C80EC0
:1041A000D11CC7010E94F232E82E8A83882309F4C9
:1041B000BFCFC6010E94F232F82E8FEF8E0D8330F2
:1041C00068F46801E3E0CE0ED11CFB82FF2021F0F1
:1041D000CE0101960E94AC058601D1CFF4E0EF122A
:1041E000FBCF680124E0C20ED11CC80103960E94D7
:1041F000F232FF2009F49CCF882309F499CF815033
:10420000990B6FEF70E00E9476324F2D4150550BA5
:10421000840F951F019700F3EFE9FFE03197F1F765
:1042200000C00000F7CFCE0101960E94AC056701E7
:10423000D3CFE6E9F3E0848195812AE030E0B9014B
:104240000E948732609309018681809308018285EC
:104250008093070184858093060186859785B9013F
:104260000E948732609305018089809304018289CE
:1042700080930301848980930201089580919603BD
:10428000909197030C9409250F931F93CF93DF937D
:1042900006E913E0D0E0C0E0CE010E949E1EF801C6
:1042A00061918F01861719F0CE010E94A71E2196F9
:1042B000C232D10589F7DF91CF911F910F910895F7
:1042C0000F931F93CF93DF9306E913E0D0E0C0E094
:1042D000CE010E949E1EF80181938F012196C23269
:1042E000D105B1F7CEE0D4E0FE018591949100971D
:1042F00011F0FC0109952896F4E0C63ADF07A1F712
:10430000DF91CF911F910F910895E6E9F3E0128EAE
:10431000138E8FEA90E09183808385E0848F88E814
:1043200093E1938382838AE090E09583848324E100
:1043300030E03783268348E050E0518740879387F9
:1043400082872EE130E0358724879787868720E5AE
:1043500030E0318B208B538B428B48E250E0558B01
:10436000448B42E350E0578B468B48EC50E0518F32
:10437000408F158E978F868F31A320A30E944421F2
:104380000C946021EF92FF920F931F93CF93DF93D2
:104390007C01EB018A016FEF70E0CE010E94DB32FD
:1043A00028E034E0A0EAB4E090E080E0AC014E5FA9
:1043B0005F4F0417150788F0F90165917491E616AF
:1043C000F70630F48C0F9D1FFC0171836083CA01D6
:1043D000285F3F4FA217B30749F7DF91CF911F9195
:1043E0000F91FF90EF900895CF93DF93EC01CB01F5
:1043F000DA0128E034E0F90145915491C417D5075A
:1044000049F0285F3F4F44E0203A3407A1F78FEF8F
:104410009FEF15C0A9014E5F5F4FFA01659174913E
:10442000A617B707A0F3FA01459154912C5F3F4FAF
:10443000F901659174910E94D23290E080E0DF91A1
:10444000CF910895CF93DF93DC019A01C8E0D4E0C7
:10445000FE0185919491A817B90741F0289684E050
:10446000C03AD807A9F78FEF9FEF1DC0CE01029683
:10447000FC014591549124173507A8F3FC0145919F
:104480005491FE013496859194910E94D2320E94FB
:104490004421FE01369685919491009711F0FC011C
:1044A000099590E080E0DF91CF9108958091AE036F
:1044B0009091AF0308958091B30381700895809126
:1044C000B3038695817008958091B30382FB88279A
:1044D00080F908958091B30383FB882780F90895BC
:1044E0009C018832910568F44E97E8F42450310914
:1044F0008091B103829581702A313105C8F080E046
:1045000008958933910558F48D32910510F48B97F5
:10451000B1F78091B10382FB882780F909C0843606
:104520009105B9F3ECCF8091B10383FB882780F923
:1045300091E0892708958091B10385FB882780F950
:1045400008958091B10386FB882780F90895CF9361
:10455000DF93EC01FB018281882309F4F2C0C136AC
:10456000FDE5DF0749F048F5C631ECE5DE07E0F48C
:10457000C230FCE5DF07F0F00E94EC10909383035B
:1045800080938203C631ECE5DE0748F5C230FCE5D6
:10459000DF07C0F480918203909183030E94FA1098
:1045A0000E948A0780E006C09E012A5F3C452930B0
:1045B000310510F3DF91CF910895C53A9DE5D907F4
:1045C000C9F7DACFFE01E350FC4580918203816098
:1045D000E331F10528F5E957FC4C0C94AF32C330B8
:1045E0008DE5D80770F4CA3F9CE5D90798F2FE0123
:1045F000EB5FFC45E830F10510F5E656FC4C0C94F9
:10460000AF32C136EDE5DE0709F494C09091820324
:10461000892F8E7F90FF8160C53ADD4509F0BACFC2
:1046200080938203B7CF809182038260F9CF80911B
:1046300082038460F5CF809182038860F1CF8091FE
:104640008303816080938303A5CF8091830382607D
:10465000F9CF809182038061E3CF809182038062F1
:10466000DFCF809182038064DBCF0E948A07809134
:1046700082038068D5CF809182038C60D1CF8091F6
:1046800083038360DFCF809182038E7FC9CF8091C7
:1046900082038D7FC5CF809182038B7FC1CF8091B4
:1046A0008203877FBDCF809183038E7FCBCF8091A4
:1046B00083038D7FC7CF809182038F7EB1CF80919E
:1046C00082038F7DADCF809182038F7BA9CF0E9423
:1046D0008A07809182038F77A3CF80918203837FA3
:1046E0009FCF809183038C7FADCF8091820382FB2B
:1046F000992790F921E0922790FB82F990FB83F9AA
:104700008FCF80918303982F909591708E7F892B06
:1047100090FB81F997CF0E948A0790918203892F9D
:1047200097FB87F980587CCF81E00E947F1132CFC0
:1047300080E0FBCF90918203892F8F7E94FF806170
:104740006FCF81E037CF80910A01877F80930A0184
:1047500082E00E94CD0F80910A0184FF06C08F7E07
:1047600080930A0182E00E94B30F80910A0185FFC5
:1047700006C08F7D80930A0180E20E94B30F0C94E3
:104780001A10CF93DF93EC01662319F082E00E94A8
:10479000C70FCE019056811520E2920720F0905E5F
:1047A0008115904108F4DD27CE01DF91CF910C9463
:1047B000A8039C013056211540E2340720F0305EFA
:1047C0002115304108F499270C94BD03AC0123E076
:1047D000969587952A95E1F78E719927FC01EB5DF7
:1047E000FC4F0190F081E02D4F70552721E030E023
:1047F00002C0220F331F4A95E2F7662341F0E22BF5
:10480000F32B8B5D9C4FDC01ED93FC930895209579
:104810003095E223F323F5CF9C01FC0183E0F6956C
:10482000E7958A95E1F7EE71FF27EB5DFC4F2F705E
:10483000332781E090E0AC0102C0440F551F2A9558
:10484000E2F79A01808191812823392381E0232B8B
:1048500009F480E00895DF92EF92FF920F931F9387
:10486000CF93DF93EC017B01D42E890180910A0163
:1048700082FF87C020914B0330914C032C173D07DA
:1048800019F0209709F07DC090910A019B7F9093C9
:104890000A0161E091FD10C080914D0390914E039B
:1048A000A701481B590B61E080910B0190910C010D
:1048B0004817590708F460E0617080910A0160FBB5
:1048C00081F980930A01C9010E94E6230E94B00F7A
:1048D00081FF08C080910A01806180930A0182E013
:1048E0000E94B90F0E94B00F85FF08C080910A0195
:1048F000806280930A0180E20E94B90F60910A01F0
:1049000066956170A80180914B0390914C030E94C1
:10491000C123D11014C08091B4039091B5030097C6
:1049200041F560910A0166956170A80180914B0381
:1049300090914C030E94D9230E94A32331C0B80157
:1049400080914B0390914C030E949B22882319F382
:10495000B80180914B0390914C030E94A1228111D8
:10496000DACFDF91CF911F910F91FF90EF90DF9001
:104970000895EFE9FFE03197F1F700C000000197DB
:10498000CECFCE010E940C24682FA801CE010E9438
:10499000D92380914B0390914C038C179D0761F2B2
:1049A000F0924E03E0924D03DCCF8091B10380FF83
:1049B0001EC080910A0182FF1AC00E94B32ABC0166
:1049C00080914D0390914E039B01281B390B8091E0
:1049D0000B0190910C012817390748F025E433E0CA
:1049E00041E080914B0390914C030C942B2408954B
:1049F00090910A01892F8E7F90FF816080930A0138
:104A00000C94A32380910A018E7F80930A010C9459
:104A1000A32390930C0180930B010895CF92DF9212
:104A2000EF92FF920F931F93CF93DF93EC018B01D3
:104A30008091B10380FD0CC0FF24F3948F2DDF9192
:104A4000CF911F910F91FF90EF90DF90CF9008953D
:104A50000E94B32A6C01F8018281882391F1809130
:104A60000A0182FF08C025E433E040E0B60190E08F
:104A700080E00E942B24CB31FCE5DF07C9F0CC316C
:104A80002CE5D207D9F0CA318CE5D80711F40E9481
:104A9000F824CE0190568115E0E29E0720F0905E4A
:104AA00081159041E0F410924C0310924B03C4CF57
:104AB00080910A01816080930A01EBCF0E94022558
:104AC000E8CF80910A018F7EC13ED10531F0C53E0D
:104AD000D105B9F580910A018F7D80930A018091FB
:104AE0000A0180FFA9CFB801CE010E947022F8010F
:104AF000F280882309F4C8C0FF2009F4BEC00E94D8
:104B0000B00FF82E0E94D80F8F298D7FB9F1109227
:104B10004C0310924B038091B10381FD2FC060E0E4
:104B2000CE010E94E623A80160E0CE010E94C123CD
:104B30000E94D80F8D7F0E94F40F82E00E94931094
:104B400076C0CE019056811520E2920720F0905E4B
:104B50008115904120F680910A0182FF6DCFB80146
:104B6000CE010E945F22811167CF25E433E040E04F
:104B7000B60190E080E00E942B245ECF86E0F80131
:104B8000A5E4B3E001900D928A95E1F710924703F6
:104B9000109249031092480380914B0390914C036B
:104BA000C817D90709F04AC0B801CE010E949B225C
:104BB000882309F443C080914B0390914C032091CA
:104BC0000A0121FD36C080914D0390914E0376017C
:104BD000E81AF90AB80180914B0390914C030E94A6
:104BE0005622E816F90650F50E94B00F81FF08C062
:104BF00080910A01806180930A0182E00E94B90FCE
:104C00000E94B00F85FF08C080910A0180628093E6
:104C10000A0180E20E94B90F60910A0166956170F5
:104C2000A80180914B0390914C030E94C123F12C69
:104C300005CFB8010E94A1228111C5CF0E94B00FFB
:104C4000182F0E94D80F182B80910A0111FB81F9AF
:104C500080930A010E94D80F8D7F0E94F40FD09399
:104C60004C03C0934B03D0924E03C0924D038091EE
:104C70000A01846080930A0160CF980140E0B60188
:104C8000CE010E942B24DACEF1100DCFD5CECF93DA
:104C9000DF93EB0186319C4509F03BC00E94B00FC9
:104CA000982F9A7A2091B00320FF04C0382F3474D3
:104CB00009F090E021FF04C0382F317109F090E035
:104CC00022FF04C0382F387809F090E023FF03C09A
:104CD000827209F090E08A81882389F081E0911145
:104CE00001C080E080934F0389E2911185E30E9427
:104CF000530F0E941A1080E0DF91CF9108958091A8
:104D00004F03811104C089E20E945A0FF2CF85E35C
:104D1000FBCF81E0F1CFAF92BF92CF92DF92EF92C3
:104D2000FF920F931F93CF93DF937C015B01C42FFE
:104D3000D22FFC0182818823F9F0409352030E9414
:104D4000B32A909351038093500380E28C0F8830F4
:104D500008F061C0C77081E001C0880FCA95EAF70A
:104D6000DF91CF911F910F91FF90EF90DF90CF9047
:104D7000BF90AF900C945A0710915203141340C087
:104D800080915003909151030E94DF2A6C01B7017A
:104D9000C5010E945622C816D90690F5C0E2CD0F73
:104DA0001D17B9F080E2810F883040F4177081E060
:104DB00001C0880F1A95EAF70E946107C83048F4CD
:104DC00081E09D2F977001C0880F9A95EAF70E94A5
:104DD0005A07802F0E944E07C830E8F4D77081E050
:104DE00001C0880FDA95EAF7DF91CF911F910F91FB
:104DF000FF90EF90DF90CF90BF90AF900C94610741
:104E000080E28C0F883038F4C77081E001C0880FD1
:104E1000CA95EAF7E9CFDF91CF911F910F91FF90EB
:104E2000EF90DF90CF90BF90AF9008950F939C01CB
:104E3000CB01233F4CE53407A1F190F4283DFCE57C
:104E40003F0749F1293D4CE53407E9F1273D3C4551
:104E5000C1F0FC0182818823E1F11092520319C054
:104E6000253FFCE53F0719F1263F4CE5340729F1C2
:104E7000243F3C4571F707E225EE44EE64EF7CE504
:104E800005C006E221EE41EE67ED7CE50E948B262F
:104E900080E00F91089507E225EE45EE68ED7CE590
:104EA000F5CF06E221EE40EE63EF7CE5EFCF06E2C0
:104EB00021EE42EE65EF7CE5E9CF07E225EE46EE16
:104EC00066EF7CE5E3CF08E221E045EE69ED7CE5A5
:104ED000DDCF81E0DECFCF93DF93EC0189898111B3
:104EE00015C081E0898B8F810E94B30F88850E9455
:104EF000C70F0E941A10EA81FB816C897D89309767
:104F000029F0CE010696DF91CF910994DF91CF91E0
:104F100008950F931F93CF93DF93EC018A8581113E
:104F200032C00B811C811755C80166E170E00E94F8
:104F30007632DC01A55ABD4F1496ED91FC91159780
:104F4000309731F054966D917C918F599D4F099512
:104F5000C80166E170E00E9476328C01055A1D4F4F
:104F6000F80187810E94B90FF80180850E94CD0F5A
:104F70000E941A10188219861B861E821D821092AA
:104F8000540310925303DF91CF911F910F91089515
:104F9000DF92EF92FF920F931F93CF93DF938C01D9
:104FA000FB018281882399F080910D0190910E017F
:104FB000019669F0CBE5D2E0F12CE12CDD24D3940D
:104FC00080910D0190910E018E159F0544F4DF91A3
:104FD000CF911F910F91FF90EF90DF9008958E81F8
:104FE0008823C1F089859A858017910739F48091CB
:104FF0005303909154038017910761F0DF861C875B
:105000000B87CE010E946B27CE0106960E9489274E
:105010000E94D50F2FEFE21AF20A6696D1CFEF92D7
:10502000FF920F931F93CF93DF937C01FB018C01C1
:1050300017550F3F110511F008F03FC080910D0189
:1050400090910E018017910724F410930E010093A4
:105050000D012281C80166E170E00E947632EC0108
:10506000C55ADD4F288B92818E81992371F1FA8682
:10507000E9868F5F8E830E94B32A9E878D870E9468
:10508000D80F8F830E94B00F88870E94C40F988525
:10509000982B9887E881F981309759F02C893D89C0
:1050A000C80166E170E00E947632B9018F599D4FC8
:1050B0000995F0925403E092530381E0DF91CF9180
:1050C0001F910F91FF90EF9008958823B1F3898984
:1050D000882399F3C80166E170E00E9476328F5907
:1050E0009D4F0E948927E9CF8F929F92AF92BF92E6
:1050F000CF92DF92EF92FF920F931F93CF93DF93A4
:1051000000D000D000D0CDB7DEB780910D019091D6
:105110000E01019609F061C026960FB6F894DEBF25
:105120000FBECDBFDF91CF911F910F91FF90EF90F8
:10513000DF90CF90BF90AF909F908F900895C8015F
:1051400066E170E00E947632FC01E55AFD4FE2888C
:10515000F388E114F10459F4D6012A2D1D922A9501
:10516000E9F7B601818592850E9456227C01C8012B
:1051700066E170E00E947632FC01E55AFD4F8681BF
:105180008823F1F0C80166E170E00E947632FC01EC
:10519000E55AFD4F858596850E94DF2AE816F906B7
:1051A00078F4C40166E170E00E9476328C01855A81
:1051B0009D4F0E946B27C8018F599D4F0E948927E0
:1051C000B3940B2D10E080910D0190910E014801D8
:1051D000801791070CF0B3CF9FCFB12C86E0A82E9B
:1051E000CE0101966C01EDCF9093A3018093A201B3
:1051F000089590935A03809359030895E0915903B9
:10520000F0915A03309721F00190F081E02D09943C
:1052100080E00895DC01E0915903F0915A03309742
:1052200099F080911B01882351F08091820387FFC0
:1052300006C08C9111968C93119786E08C93028016
:10524000F381E02DCD0109940895DC01E09159032B
:10525000F0915A03309739F082E08C930480F58105
:10526000E02DCD0109940895209157033091580302
:105270002817390771F09093580380935703E091F2
:105280005903F0915A03309721F00680F781E02D01
:105290000994089520915503309156032817390732
:1052A00071F09093560380935503E0915903F09168
:1052B0005A03309721F00084F185E02D0994089578
:1052C000FC01329680911B01882321F0809182039A
:1052D0009EE187FF96E080E0915008F408952191C7
:1052E0002223D1F38F5FF8CF9C01662301F18091D7
:1052F0001B018823F1F08091820387FF1AC0462F9B
:10530000469546954695603F90F4677081E090E041
:1053100002C0880F991F6A95E2F7240F311DF90129
:10532000228130E02823392381E0232B71F480E0AF
:105330000895F9013296285F3F4F8191861721F039
:10534000E217F307D1F7F3CF81E008959C01FC0148
:1053500032968FEF90E04191461751F08F3F19F44C
:10536000411101C0892F9F5F9630A9F78F3F09F443
:105370000895280F311D87FD3A95F901628308953C
:105380009C01FC013296285F3F4F8191861303C038
:10539000DF0111971C92E217F307B9F70895FC019A
:1053A000862F869586958695603F60F4E80FF11DFF
:1053B000677021E030E001C0220F6A95EAF7828130
:1053C000822B82830895FC01862F8695869586958B
:1053D000603F68F4E80FF11D677081E090E001C064
:1053E000880F6A95EAF780959281892382830895D0
:1053F00020911B01222329F02091820327FD0C9488
:10540000CF290C94A62920911B01222329F0209159
:10541000820327FD0C94E3290C94C029FC013296E9
:1054200080911B01882351F08091820387FF06C081
:105430008EE1DF011D928A95E9F7089586E0F9CFA4
:1054400008950C94202A8F5F80935B030C94212A8B
:1054500083E080935B030C94212A0C94232A81E03F
:1054600080935B030C94212A0C942F2A08950895AD
:105470000C94372A089508950C94362ACF930E94ED
:105480003A2A0E9456150E943B2AC0E08C2F0E94A7
:105490008B14892B31F4CF5FC430C1F780E0CF91FA
:1054A000089581E0FCCF08951F921FB61F9211242A
:1054B0008F939F93AF93BF9380915C03811113C02F
:1054C0008091B8039091B903A091BA03B091BB0346
:1054D0004196A11DB11D8093B8039093B903A09389
:1054E000BA03B093BB03BF91AF919F918F911F906F
:1054F0001FBE1F9018958091C003843031F10E9427
:10550000DA0410925C0388E190E020E40FB6F8948E
:10551000A895809360000FBE2093600083B7817FC1
:10552000846083BF83B7816083BF7894889583B795
:105530008E7F83BF0FB6F894A89580916000886134
:1055400080936000109260000FBE08950E948A0749
:105550000C94DE0482E084BD93E095BD9AEF97BD84
:1055600080936E0008952FB7F8948091B8039091BE
:10557000B903A091BA03B091BB032FBF0895CF9395
:10558000DF9300D000D0CDB7DEB78FB7F89420916D
:10559000B8033091B9034091BA035091BB032983FA
:1055A0003A834B835C838FBF69817A818B819C8135
:1055B0000F900F900F900F90DF91CF9108959C0165
:1055C0004FB7F8948091B8039091B903A091BA03B2
:1055D000B091BB034FBF821B930B089578941F9229
:1055E0001FB61F9211248F939F93AF93BF93809107
:1055F000B8039091B903A091BA03B091BB0301968F
:10560000A11DB11D8093B8039093B903A093BA0371
:10561000B093BB03BF91AF919F918F911F901FBE1D
:105620001F90189581E08093E00080E28093D8007D
:105630001092C9008FE19EE40197F1F700C00000CD
:1056400087E090EBDC018093C9039093CA03A09399
:10565000CB03B093CC0388E19CE00FB6F894A895F7
:10566000809360000FBE90936000FFCF8091800315
:105670000895089524E02093E9002FEF3091E80089
:10568000215035FD06C035ED3A95F1F700002111A6
:10569000F5CF2091E80025FF0BC050E040E066E028
:1056A00070E00E94D02D8091E8008E778093E80012
:1056B0000895CF93DF93D82FC92F80911B018823A2
:1056C000C1F18091820387FF34C060E284E080935F
:1056D000E9008FEF9091E800815095FD06C095EDAF
:1056E0009A95F1F700008111F5CF8091E80085FFD0
:1056F0001DC080911B0170E050E040E0811104C0AA
:1057000050E040E068E070E08D2F9C2F0E94D02D8B
:105710008091E8008E778093E80080E2ED2FFC2FE7
:10572000A0E6B3E001900D928A95E1F7DF91CF9169
:10573000089568E081E0CBCF80935D0370935F03B1
:1057400060935E038091C0038430F9F48093E90094
:105750008FEF9091E800815095FD06C095ED9A95E8
:10576000F1F700008111F5CF8091E80085FF0DC0B1
:1057700050E040E063E070E08DE593E00E94D02DC2
:105780008091E8008E778093E8000895BC0184E062
:105790000C949C2BBC0183E00C949C2BCF93603227
:1057A00011F52091C0032430F1F42091E900C0915B
:1057B000EC00C795CC27C7952F70C22B22E0209311
:1057C000E9002091E80020FF0BC050E040E060E2DB
:1057D00070E00E94D02D8091E8008E778093E800E1
:1057E000CF70C093E900CF9108950C942F2A609157
:1057F000BC0381E0611101C080E00C94282A9091E3
:10580000C00381E0943009F080E06091BC030C9407
:105810002D2A42E061EC81E00E94212F42E261ECFE
:1058200084E00E94212F42E261EC82E00E94212F5D
:1058300042E260EC83E00E94212F9091C00381E05E
:10584000943009F080E06091BC030C94232A80918D
:10585000C203893089F148F4823009F49DC0833055
:1058600009F458C0813041F008958A3009F484C0A9
:105870008B3009F46AC008958091C103813A09F020
:1058800048C08091E800877F8093E8008091C5033D
:105890009091C603892B61F460E280E693E070E0AA
:1058A0000E946E2E8091E8008B778093E800089527
:1058B00060E090E080E0F3CF8091C103813249F550
:1058C0008091C5039091C6038D7F892B11F580913E
:1058D000E800877F8093E8008091E80082FF15C090
:1058E0008091F200823031F48091F100813011F02A
:1058F000863021F48091F100809380038091E8004C
:105900008B778093E8000C94552F8091C003811110
:10591000E3CF08958091C103813AD9F78091C503FF
:105920009091C603892BA9F78091E800877F809327
:10593000E8008091E80080FFFCCF80911B018093FC
:10594000F1008091E8008E77DCCF8091C103813235
:1059500001F78091C5039091C603892BD1F6809100
:10596000E800877F8093E8000E94552F8091C30351
:1059700080931B010C948A078091C103813249F600
:105980008091E800877F8093E8000E94552F8091E6
:10599000C4038093810308958091C103813A09F083
:1059A000B8CF8091E800877F8093E8008091E8007D
:1059B00080FFFCCF80918103C2CF84B7877F84BFF3
:1059C0000FB6F894A895809160008861809360007C
:1059D000109260000FBE80E890E00FB6F8948093BC
:1059E0006100909361000FBE0C94342A0E94A52F91
:1059F0000E94F82FE2EEF0E080818460808378944A
:105A00000C9453328FE091E00C94F9288091C003FC
:105A10008530A9F48091C003853011F00C94A62A3A
:105A20000E947B2A8091BE038823A1F30E943E2A14
:105A3000882381F30E94BA2D0E948A07EBCF089534
:105A4000CF93DF93CDB7DEB7A0970FB6F894DEBF44
:105A50000FBECDBF8091C003843009F583E08093F1
:105A6000E9008091E80082FF1AC08091E80090E090
:105A700085FF09C050E040E060E270E0CE01019691
:105A80000E941F2E91E08091E8008B778093E800C0
:105A9000992329F060E2CE0101960E943319A09665
:105AA0000FB6F894DEBF0FBECDBFDF91CF91089542
:105AB0000C945A2DFC01CB01DA012F2F3327233010
:105AC0003105D1F070F42130310509F44EC0223097
:105AD000310569F48BE590E02AEE34E02D933C9398
