:100000000C9442030C947A030C947A030C947A03B4
:100010000C947A030C947A030C947A030C947A036C
:100020000C947A030C947A030C947A030C94113098
:100030000C94C1300C945D2A0C947A030C947A03CE
:100040000C947A030C947A030C947A030C94F72A98
:100050000C947A030C947A030C947A030C947A032C
:100060000C947A030C947A030C947A030C947A031C
:100070000C947A032C002C002C002C002C002C005B
:100080002C002C002C002C002C002C002C002C0010
:100090002C002C002C002C002C002C002C002C0000
:1000A0002C002C002C002C002C002C002C002C00F0
:1000B0002C002C0000002C00000000002C002C0064
:1000C00000002C00010001000100010001000100FE
:1000D0000100010001000100010001000100010018
:1000E0000100010001000100010001000100010008
:1000F00001000100010001000100010001000100F8
:1001000001000100000001000000000001000100EA
:1001100000000100010001000100010001000100D8
:1001200001000100010001000100010001000100C7
:1001300001000100010001000100010001000100B7
:1001400001000100010001000100010001000100A7
:10015000010001000000010000000000010001009A
:100160000000010001000100010001000100010088
:100170000100010001000100010001000100010077
:100180000100010001000100010001000100010067
:100190000100010001000100010001000100010057
:1001A000010001000000010000000000010001004A
:1001B0000000010000000000000000002A2B2800C1
:1001C0000000000000000000000000000000002906
:1001D000000000002C1E3420212224342627252E46
:1001E000362D3738271E1F2021222324252633337E
:1001F000362E37381F0405060708090A0B0C0D0EAA
:100200000F101112131415161718191A1B1C1D2F75
:100210003130232D350405060708090A0B0C0D0E95
:100220000F101112131415161718191A1B1C1D2F55
:100230003130354C000000000000000000000000DC
:1002400000000000000000000000000000000000AE
:1002500000000000000000007E0F00D4FFFFFFC779
:1002600000000078FD377A585A000004E6D6B446FC
:100270000200210116000000742FE5A3E0038901AC
:10028000625D003D8889C65436C3174FE4DB9B3E50
:10029000A04539B3998B00D189C466A2CA87CEB074
:1002A000446358FA4EB13735DE3DAC85A3CB44FFED
:1002B0002116C7CBF87A281A418A5F4112951A1E77
:1002C000B4034B760E26291F48CA9D0A5EE6DFF668
:1002D0000E9DF68E7D6959D293D43CA85A36EF3ADA
:1002E0002A5D727E9297055B7FB84F1D45FC9B0689
:1002F00030DFCDB301870A3CB06B6AC3CC71C6E373
:10030000EFEF231AB3CE63AE9FF29B5303DC010CD5
:10031000B87596A26A8DB6930703B537511ABF6FA9
:100320007DDA45842388CA69122CE4B42349453216
:10033000224619B2E7769740E74DD2C8DA3CE01E74
:10034000BB88E92516741D0DCA6D815BBC9BC7CCAB
:10035000842DED998D6D7240FA7EEB0DB5940C14E1
:100360007360BB6199FF1CC6685DF226587FEB067F
:10037000665BBAB26B8297477530477DD9C310FD73
:1003800075E3AE4C050363E4985FBD1AF0286F8BEC
:100390001B25F063021AB1FE149859AFE499029438
:1003A000536740EF49D7DBBB7CFC7C74096AC924E6
:1003B00023F98CAC06E3F470907911365165768E92
:1003C00057D0868A824A25475BD10E431078E120B8
:1003D00037A0C33E5F3FD66876D39A508009E53098
:1003E00048AD4ED0B7000000B4EC78E35A7417B3B0
:1003F0000001FE028A0700000EBFA611B1C467FB10
:10040000020000000004595A01000100B00300007E
:1004100002000200AC03000003000100B103000071
:10042000040002009603472105000100B20300000A
:10043000060002009803000007000200AE0300005F
:1004400008000100B3030000090002009A03222102
:100450000A0002009C0322210B0002009E032221BD
:100460000C000200A00322210D000200A2032221A1
:100470000E000200A40322210F000200A603222185
:1004800010000200A803222111000200AA03222169
:1004900012000200B403000013000200B6030000C3
:1004A0001C037600690061006C003A0066003600AB
:1004B00034006300320062003300630000000E036A
:1004C0004100640061006C0079006E0000002403AC
:1004D00053006300610074007400650072006500E1
:1004E00064006400720069006600740065007200B8
:1004F000730000000403090409025B00030100A06B
:10050000FA090400000103010100092111010001A1
:1005100022400007058103080001090401000203CD
:1005200000000009211101000122220007058203B9
:100530002000010705030320000109040200010354
:1005400000000009211101000122BC0007058403FD
:1005500020000112010002000000083174646101F2
:1005600000010203010660FF0961A1010962150093
:1005700026FF009520750881020963150026FF00FB
:10058000952075089102C005010902A101850209A3
:1005900001A1000509190129051500250195057519
:1005A00001810295017503810105010930093115A9
:1005B00081257F95027508810609381581257F956B
:1005C0000175088106050C0A38021581257F950101
:1005D00075088106C0C005010980A10185031901C4
:1005E0002AB700150126B700950175108100C005D6
:1005F0000C0901A101850419012AA002150126A0F8
:1006000002950175108100C005010906A10185064A
:10061000050719E029E715002501950875018102F4
:100620000507190029EF1500250195F075018102D4
:1006300005081901290595057501910295017503B4
:100640009101C005010906A101050719E029E71577
:100650000025019508750181029501750881010544
:1006600007190029FF150026FF009506750881006F
:100670000508190129059505750191029501750374
:100680009101C00011241FBECFEFD4E0DEBFCDBF6B
:1006900004B603FE18C08091C9039091CA03A091CB
:1006A000CB03B091CC038730904BA740B04B59F4AB
:1006B0001092C9031092CA031092CB031092CC037C
:1006C000E0E0F8E3099511E0A0E0B1E0EAE6F7E642
:1006D00002C005900D92A23AB107D9F723E0A2EA31
:1006E000B1E001C01D92A93CB207E1F70E94F115EB
:1006F0000C9445330C9400009C019A9581159F4100
:1007000018F5F901EE27F270832F8170B901662781
:100710007470A9014427587034FF0CC08295807F03
:10072000EF2B09F08062672B09F08064452B69F09C
:1007300080680895EF2B09F08260672B09F08460D0
:10074000452B19F08860089580E00895CF93DF93DA
:10075000EB010E947C03FE01DF91CF910994CF93BE
:10076000DF93EC01805E9109089720F06FE677E057
:10077000209711F461E677E0CE010E94A6038C2F4A
:10078000DF91CF910C945706CF93DF93EC010E9439
:10079000E806CE01805E9109089720F066E777E0D1
:1007A000209711F468E677E0CE01DF91CF910C94A9
:1007B000A60381E0089581E008950C94DB03089579
:1007C0000C94DF031F93CF93DF9300D000D00F92E0
:1007D000CDB7DEB749835A836B833091A5018981F8
:1007E0009A8131111DC06623B9F02223A9F00E941D
:1007F000780B182F682F89819A810E94140B6981C8
:100800007A81812F0F900F900F900F900F90DF91B2
:10081000CF911F910C9411200E94480B182FEFCFFD
:100820000E94780B69817A81EDCFFC01262F4081EF
:1008300051816281738184810C94E20381E0089587
:10084000CF93DF93D82FC92F60E00E9415046D2F3E
:100850007C2FDF91CF910C94E003E1E0F0E0DF0129
:1008600002C0AA0FBB1F6A95E2F7BD01DF0102C0FB
:10087000AA0FBB1F4A95E2F76A2B01C0EE0F2A951B
:10088000EAF7962F9823961302C08E2B0895E095D1
:100890008E230895242F462F682F8091B7010E9440
:1008A0002D040C94D10A0C9477140C947A140895A6
:1008B0000E9491070E9457042FEF84E39CE021508F
:1008C00080409040E1F700C000000C941B2B0F9378
:1008D0001F93CF93DF93EC018B010E94D127B801C6
:1008E000CE010E940119882309F44FC0B801CE013E
:1008F0000E94F61D882309F448C0B801CE010E9469
:10090000DD03882309F441C0B801CE010E941828F4
:100910008823D9F1B801CE010E9417258823A9F1B7
:10092000B801CE010E941F27882379F1B801CE01BA
:100930000E94B022882349F1B801CE010E945026BE
:10094000882319F1F8018281882361F0CA35FDE519
:10095000DF0721F170F4C115ECE5DE07A1F0CE3D13
:10096000DC45C9F0C801DF91CF911F910F910C9424
:10097000D903CB358DE5D807A1F0CC35DD4591F70E
:100980000E94CB10EFCF0E94580480E0DF91CF91FE
:100990001F910F9108950E948411F7CF0E94D410E7
:1009A000E1CF0E94D710DECFCF93DF93D82FC92F8E
:1009B00061E00E9415046D2F7C2FDF91CF910C9484
:1009C00067040E94412A0C94C6050E94C9050C9434
:1009D000452ADF92EF92FF920F931F93CF93DF93FD
:1009E000E82FF0E0EC54FE4FD490282F2695269562
:1009F000269530E0F901EC5AFD4F0491877010E024
:100A0000082E02C0159507950A94E2F70170112788
:100A1000F901EC5BFD4FE490F12C082E02C0F59437
:100A2000E7940A94E2F791E0E922FF24F901EC5CF3
:100A3000FD4FC491D0E002C0D595C7958A95E2F7E5
:100A4000C170DD270115110519F081EE0E945706CE
:100A5000E114F10419F086EE0E9457068D2D0E94D4
:100A60005507EF2819F086EE0E94E806012B19F0D1
:100A700081EE0E94E806CD2B51F08CE2DF91CF9100
:100A80001F910F91FF90EF90DF900C945507DF912D
:100A9000CF911F910F91FF90EF90DF900895EF920B
:100AA000FF921F93CF93DF93EC01162F8881882349
:100AB00009F453C0813009F04DC089818130A1F41F
:100AC0007E0182E0E80EF11C8A810E945507E70151
:100AD0002196812F882351F3EFE9FFE03197F1F759
:100AE00000C000008150F6CF823041F47E01E2E088
:100AF000EE0EF11C8A810E945706E9CF833041F443
:100B00007E01F2E0EF0EF11C8A810E94E806DFCF41
:100B1000843011F02196DCCF2A81229680E090E08B
:100B2000FE0131962053330B2A30310550F00097E7
:100B300079F2EFE9FFE03197F1F700C0000001978B
:100B4000F6CF6AE070E00E947F32820F931F298106
:100B5000EF01E6CF0E94E904BBCFDF91CF911F9157
:100B6000FF90EF90089560E00C944F0508950C9469
:100B7000B60581E008950C94B9050895CF93C82F68
:100B80000E94B7058C2FCF910C94BB0580E00C948C
:100B9000BE050E9407290C94BE050E94072990916A
:100BA000A401981721F08093A4010C94BE05089528
:100BB0009C012115310509F408958FE99FE0019703
:100BC000F1F700C0000021503109F3CF0F931F93BC
:100BD000CF93DF93CDB7DEB72B970FB6F894DEBF78
:100BE0000FBECDBF4F835887262F69877A878B87A3
:100BF0008A859B85892B29F0852F84238F3F09F0D7
:100C000047C021110E94DC0F1E8225E0FE013796AD
:100C1000CE010196DC0101900D922A95E1F7209119
:100C200083038C0122FD12C0809198039091990357
:100C3000892B61F00E94960F882319F082E00E94B0
:100C40009A100E94710F81110E94131089819A815C
:100C50002C813D81232B99F449815A816B817C81C0
:100C60008D819E810E94BC0E2B960FB6F894DEBF3C
:100C70000FBECDBFDF91CF911F910F9108958923B2
:100C80008F3F51F3C8010E941E048111E5CFECCFC4
:100C90008091A6019091A70101969093A70180935E
:100CA000A601AFCFFC01808191810C94A50BCF935D
:100CB000C82F882309F48AC08238C1F40E9407290A
:100CC00081FD84C089E30E945A0F0E9421102FEFFA
:100CD00031EE84E0215030408040E1F700C0000058
:100CE00089E30E94610FCF910C9421108338A1F405
:100CF0000E94072980FD6AC083E50E945A0F0E9466
:100D000021109FEF21EE34E0915020403040E1F778
:100D100000C0000083E5E5CF8438A1F40E940729D4
:100D200082FD54C087E40E945A0F0E9421108FEF69
:100D300091EE24E0815090402040E1F700C0000097
:100D400087E4CFCF8CEF8C0F813A90F46C2F809199
:100D50000001909101010E947D29882329F08C2FA8
:100D60000E94610F0E9421108C2F0E945A0FBBCF4E
:100D700080E28C0F883048F4C77081E001C0880F92
:100D8000CA95EAF70E94BA0FAECF8BE58C0F83307D
:100D900038F42C2F2452330BC901CF910C943D29E8
:100DA000E8E5EC0FE73150F4F0E0EE0FFF1FE05EF6
:100DB000FE4F80819181CF910C945329C03F30F038
:100DC0008C2F0E948716CF910C944E17CF910895C7
:100DD000882309F452C0823871F40E94072981FFE8
:100DE0004CC089E30E945A0F0E94211089E30E949F
:100DF000610F0C942110833859F40E94072980FF59
:100E00003CC083E50E945A0F0E94211083E5EFCF7A
:100E1000843859F40E94072982FF2FC087E40E947A
:100E20005A0F0E94211087E4E2CF9CEF980F913A6D
:100E3000F0F290E2980F983050F4877091E001C082
:100E4000990F8A95EAF7892F0E94C00FD2CF9BE5B0
:100E5000980F933020F490E080E00C943D2998E5C1
:100E6000980F973120F490E080E00C945329803F54
:100E700020F00E94D9160C944E1708951F93CF931B
:100E8000DF93182FEB010E945706209731F4812F32
:100E9000DF91CF911F910C94E8068FE99FE00197B5
:100EA000F1F700C000002197F0CF6091B603709178
:100EB000B703893321F06091B4037091B5030C94AA
:100EC0003E07882321F00E94BA0F0C942110089548
:100ED000882321F00E94C00F0C94211008958823CC
:100EE00021F00E94CE0F0C9421100895882321F048
:100EF0000E94D40F0C942110089590E080E00E948D
:100F00003D2990E080E00E9453290E94DC0F0E945E
:100F100021100E9483180C944E170E94680F0C94A5
:100F20007D070E94C80F0C948D07282F92959F7003
:100F3000963091F060F4925F9F70923030F481E0CF
:100F4000203F81F030F4283E30F080E008959A5F31
:100F5000F3CF243FD1F7089581E0283EE0F3213F0D
:100F6000A1F7F9CF0895FC01808191810E94A50B22
:100F70000C949507AF92BF92CF92DF92EF92FF92BF
:100F80000F931F93CF93DF937C01EB01FC01128140
:100F9000058102950F700E94B00FC82E8823B9F00A
:100FA000C12E1123A1F08D2F807F803421F080E2AB
:100FB0008C0F8830C8F08091830382FD15C082E0D9
:100FC0000E949A100E94B00F91E0C82EC9268D2F62
:100FD00082958F70A82EB12C8C3008F07BC0F50163
:100FE000E95BFC4C0C94B832C12CF1CFFD2FFF70A3
:100FF000DF2E8D2F807F19F0D29490EFD92211230C
:1010000099F0DD2059F080E28C0F883010F0C1118A
:1010100007C08D2D0E94BA0F0E9421108C2F52C044
:101020008D2D0E94CE0FF8CF8C2F0E94E806DD2078
:1010300009F450C080E28C0F883010F0C11104C058
:101040008D2D0E94C00F03C08D2D0E94D40F0E94D1
:10105000211040C08D2F8F70D82E8D2F807F803231
:1010600019F0D29480EFD822CC23F1F0C13009F4EA
:101070009EC0112309F4A5C0002309F47AC020E022
:10108000F701408151816281738184810E94E20372
:10109000B7010E9468228111C1CFF701858180FFCD
:1010A000BDCF8F70858365C08091830382FF44C06C
:1010B000112359F0DD2029F08D2D0E94BA0F0E94D6
:1010C000211080E00E94570605C080E00E94E806DB
:1010D000D110B6CFF8E0AF1AB10884E0A816B10479
:1010E00020F40E9407290E94BE05CE010E949507A8
:1010F0008111AAC11092A7011092A601CC2009F477
:10110000C4C10E94920F80FDC0C1F70112820E94EB
:101110008C0F0E94E20AC7010E94670A0E948C0F8E
:10112000DF91CF911F910F91FF90EF90DF90CF90C3
:10113000BF90AF900C94ED0A1123E9F0011106C0A5
:101140000E94DF0F8D290E946107C4CF013031F466
:101150000E94DF0F8D290E94FB0FBCCF8091B2034C
:10116000823070F38013ECCF0E9413108D2D0E94FB
:10117000E50F8D2DE8CF011106C00E9413108D2DB3
:101180000E946807A7CF8091B203013059F48230E2
:1011900008F4A0CF0E94B70F8D2109F49BCF0E94C5
:1011A000EE0FEBCF823048F30813E7CF93CF112334
:1011B00021F0063008F08ECFDCCF053008F08ACF62
:1011C000DECF0023E1F28091B6039091B703C933DB
:1011D00021F08091B4039091B5030E94D8058C2F23
:1011E0000E94E80677CF8D2F86958695837061F0F3
:1011F000813009F06FCFCE019370111102C090E0E1
:1012000080E00E94532966CFCE019370111102C075
:1012100090E080E00E943D295DCF8C2F112329F0C2
:101220000E9487160E944E1755CF0E94D916FACFFA
:101230008D2F837091F511114DCF9C2F929596951E
:101240009770990F990F4C2F4F70092E01C0440FC2
:101250000A94EAF78C2F8071C4FF08C02FE030E0B9
:1012600001C0220F9A95EAF7822F80959D2F9695BF
:1012700096959370842B923051F0933059F09130C1
:1012800019F00E94C30A26CF0E94BE0A23CF0E94F3
:10129000C80A20CF0E94BC0A1DCF112349F1D0FFFC
:1012A00019CF9C2F929596959770990F990F4C2F67
:1012B0004F70092E01C0440F0A94EAF78C2F8071F9
:1012C000C4FF08C02FE030E001C0220F9A95EAF772
:1012D000822F80959D2F969596959370842B9230B2
:1012E00069F0933071F0913031F00E94090BF2CE29
:1012F000D1FFF0CED6CF0E94040BECCE0E940E0B95
:10130000E9CE0E94D10AE6CEFD2FFF70DF2E112319
:1013100029F08F2F0E94E20A8C2F15CF8C2F0E946C
:1013200068078D2D0E94ED0AD5CEC23F41F160F4D1
:10133000C03FB9F0C13F81F0112309F480C0011111
:101340006DCE8D2F8F711FC0C33F01F1C43FA1F738
:101350008091830382FF24C08D2F8F71112311F39D
:1013600012C0112341F0053008F0B4CE8D2F8F71DB
:101370000E94F90AAFCE063008F0ACCEF7CF8D2F21
:101380008F711111CFCF0E94E20AA4CE112329F050
:101390008D2F8F710E94DA0A9DCE0E94D70A9ACEB5
:1013A0008091B2038230A0F11123F1F00E946E0F00
:1013B0000E94C00F0E94920F843041F40E9491104D
:1013C0008D2F8F710E94ED0AC12C84CE8091B203C3
:1013D0000817D0F78D2F8F71D82E0E94E20A63E094
:1013E0008D2D0E947410F0CF0E946E0F0E94BA0FD4
:1013F0008091B203081740F00E9491100E94EE0FF6
:1014000064E08D2F8F71EDCF81E00E949A10DCCFC8
:10141000112359F0ED2FEF71DE2E8E2F0E94E20A7C
:1014200063E08D2D0E94741055CE81E00E949A10C9
:10143000023008F44FCE82E00E949A104BCE011188
:10144000C2CE8D2F8F716ECF112319F0011152CEA4
:1014500055CE01114FCE20E0F701408151816281CC
:10146000738184810E94E203B7010E947322882362
:1014700009F440CE8091A6019091A701029709F04E
:1014800039CE8C2F0E94550735CEDF91CF911F9119
:101490000F91FF90EF90DF90CF90BF90AF900895A5
:1014A0000F931F93CF93DF93EC01688179818A8139
:1014B0000E94B10B8C010E94130B0E94BB0AB80161
:1014C000CE01DF91CF911F910F910C94BA07CF936A
:1014D000DF93EC01988189812B813C81232B19F0CA
:1014E00089238F3F59F4DF91CF910895CE010E9457
:1014F000500ACE01DF91CF910C942004CE010E94BE
:10150000D4048111F3CF0E94B00F882361F38A8144
:10151000882349F38091830382FDE5CF82E0DF9148
:10152000CF910C949A10CF93DF9300D000D00F92FC
:10153000CDB7DEB70F900F900F900F900F90DF9107
:10154000CF910895CF93DF9300D000D000D0CDB7D6
:10155000DEB726960FB6F894DEBF0FBECDBFDF9183
:10156000CF91089508950C94B20A0E94B30A809313
:10157000B8010C947D0708950C94B50A9091B801B8
:10158000892B0C94B50A9091B80189230C94B50A63
:101590009091B80189270C94B50A0C94B20A0C9466
:1015A000CD0A0E94CF0A8093B7010C947D0780E09A
:1015B0000C94D10A91E001C0990F8A95EAF7892F1E
:1015C0000C94D10A21E030E001C0220F8A95EAF79D
:1015D0008091B701822B0C94D10A21E030E001C048
:1015E000220F8A95EAF720958091B70182230C9407
:1015F000D10A21E030E001C0220F8A95EAF78091FC
:10160000B70182270C94D10A9091B701892B0C94D1
:10161000D10A9091B70189230C94D10A9091B70116
:1016200089270C94D10A0895382F892F262F9E3FA1
:1016300071F16AE00E947632830F982F977041E033
:1016400001C0440F9A95EAF786958695869590E0B5
:1016500063E070E00E947F32FC01E855FE4F90E0AD
:1016600080E0622F70E05191DF0111979B01082EFD
:1016700002C0369527950A94E2F721702195252717
:10168000242325272C9301968330910561F7089533
:10169000282F892F9E3F51F16AE00E947632820FF7
:1016A000A82FA77086958695869590E063E070E0F8
:1016B0000E947F32FC01E855FE4F50E040E080E0A0
:1016C000219130E00A2E02C0369527950A94E2F760
:1016D00021703327042E01C0220F0A94EAF7822BCF
:1016E0004F5F5F4F4330510559F7089580E00895EB
:1016F000DF92EF92FF920F931F93CF93DF937C01C2
:101700000091B7018091B801082BC7E0D0E010E04C
:10171000DC2EC8010C2E02C0959587950A94E2F73D
:1017200080FD0CC02197A0F7D12C8D2DDF91CF919A
:101730001F910F91FF90EF90DF900895B7018C2FCC
:101740000E946313019771F3F0CFCF93DF93D82FEB
:10175000C92F0E94780B6D2F7C2FDF91CF910C94B5
:1017600063131F93CF93DF93162FD72F9091A5016B
:10177000992339F0862F972FDF91CF911F910C94E9
:10178000A50B882391F0862F972F0E94780BC82FE6
:10179000682F812F9D2F0E94140B612F7D2F8C2F7E
:1017A000DF91CF911F910C946313862F972F0E9486
:1017B000480BC82FF2CFCF93DF93C091B90180912E
:1017C000BA018C1303C0DF91CF910895D0E0CE0110
:1017D00066E070E00E947F32FC01E554FE4F4081DC
:1017E000518162817381848195810E94A20A219630
:1017F000C770E5CF4091EB015091EC016091ED0194
:101800007091EE018091EF019091F0010C94A20A89
:101810000F931F93CF93DF938091F001807F31F47A
:101820008091ED01C091B901811116C0DF91CF9176
:101830001F910F9108952091EB013091EC01A0913F
:10184000EE01B091EF01D0E0109721F0832F8223B9
:101850008F3F39F42196C7708091BA018C13EBCF7A
:10186000E5CFCE0166E070E00E947F32FC01E554D6
:10187000FE4F81813813EECF80818213EBCF8281BE
:101880008111E8CF038114810A1B1B0B60E08BEEF2
:1018900091E00E9415046BEE71E00E945F22081730
:1018A0001907C0F68091F0018F7080618093F0017C
:1018B000CE0166E070E00E947F32FC01E054FE4FF2
:1018C00090819F70906190838BEE91E00E94670AF7
:1018D000DF91CF911F910F910C94DB0B4F925F9290
:1018E0006F927F928F929F92AF92BF92CF92DF9230
:1018F000EF92FF920F931F93CF93DF93CDB7DEB795
:101900002B970FB6F894DEBF0FBECDBF8C0185E0DC
:10191000F801DE01179601900D928A95E1F7D80142
:101920007C9011966C9011971296EC9012971396EA
:10193000CD90DC9060E08BEE91E00E941504582E73
:10194000492E8BEEA82E81E0B82E9091EB0180916C
:10195000EC012091EE013091EF012115310521F0CC
:1019600089238F3F09F0AAC1EE2009F4A1C0C80164
:101970000E94B307F82E882309F49AC086E0F80184
:10198000ABEEB1E001900D928A95E1F78BEE91E01C
:101990000E9452060E94080C67C16BEE71E0852D13
:1019A000942D0E9464228111BFC1CD2829F0872D7A
:1019B00086218F3F09F0FFC080E0E82FE170DE2E26
:1019C0002091B9014091BA0180FD1FC0EE2009F4B9
:1019D0001CC18091F00181608093F001F12C15C150
:1019E00030E0C90166E070E00E947F32FC01E554FE
:1019F000FE4F8181861106C08081871103C08281DC
:101A00008E11E4CF2F5F3F4F27702413E9CF8F81D2
:101A100098850E94A50B292F22952F70903268F08F
:101A2000225F2F70223080F49F7059F0D8011596F4
:101A30009C91907F31F4D12C0AC09F7011F08823C3
:101A4000D1F3805E8830B8F3C8010E94670AFD2C8C
:101A5000DCC0452B29F0382F32233F3F09F0EDC081
:101A6000C8010E94B307882319F1EE2009F1809183
:101A7000F001803270F02091EB013091EC013A835B
:101A800029831B82DD82CC828E83CE0101960E9447
:101A9000670A86E0F801ABEEB1E001900D928A95FD
:101AA000E1F70E94080C0E94FA0BFF24F394ADC0EA
:101AB000C8010E94670AF9CF892F807F99F44F816E
:101AC000588569857A858B850E94930A8BEE91E013
:101AD0000E94670A86E0D5011D928A95E9F70E9467
:101AE000FA0B7CCF8091EB012091EC014091EE014B
:101AF0005091EF01452B09F4B3CF382F32233F3FEC
:101B000009F4AECFF80131813213AACFF801208158
:101B10002813A6CFE110A4CF9583C8010E94670ABD
:101B2000EBEEF1E086E0DF011D928A95E9F76DC0EA
:101B300060E08BEE91E00E9415046BEE71E00E9474
:101B40005F228816990650F5FE2CEE2009F4B0CFDE
:101B50008091EB019091EC012091EE013091EF0129
:101B6000232B29F0282F29232F3F09F080C0C801FB
:101B70000E94B30781118DCF8091F0018160809325
:101B8000F001C8010E94670A40C086E0F801ABEE90
:101B9000B1E001900D928A95E1F737C04F815885E9
:101BA00069857A858B850E94930A86E0F5011192FA
:101BB0008A95E9F759C081E08E25FFCE8BEE91E042
:101BC0000E94670A86E0EBEEF1E0DF0185CF81E05D
:101BD0008E25B3C0F801918192139CC0F8019081C9
:101BE000981398C0E11096C08091F0018F708061C9
:101BF0008093F0010E94FA0B8BEE91E00E94670A3D
:101C00008091F001D80115968C938F2D2B960FB6ED
:101C1000F894DEBF0FBECDBFDF91CF911F910F9122
:101C2000FF90EF90DF90CF90BF90AF909F908F90FC
:101C30007F906F905F904F900895D80111963C91DE
:101C400032130ECFF801208128130ACFE11008CFFC
:101C50009583C8010E94670A86E0F801ABEEB1E007
:101C600001900D928A95E1F70E94FA0BCECFD80130
:101C700011962C9129137BCFF8019081981377CF7F
:101C80006BEE71E0852D942D0E946D2281117DCF28
:101C90008091F00180FD79CF982F907F09F475CF66
:101CA000D80115968C931597903F99F2982F907FB5
:101CB000905F8F70892B15968C93CBCFF090ED01B0
:101CC0004601821A930AFF2009F432CF60E08BEEBE
:101CD00091E00E9415046BEE71E00E945F229C016E
:101CE0009091F0018216930608F0E6CE8091EB0108
:101CF0002091EC014091EE015091EF01392F307F9E
:101D000009F0A7CEFE2C452B29F0982F92239F3F58
:101D100009F060CF6BEE71E0852D942D0E945F225B
:101D2000843F914008F439CEC114D10429F0872DA5
:101D300086218F3F09F04BCF80E02091B90140917F
:101D4000BA0180FF32CE241709F42FCE30E0C9014A
:101D500066E070E00E947F32FC01E554FE4F818115
:101D6000861106C08081871103C082818E1126CF23
:101D70002F5F3F4F2770E7CFCF93DF93CDB7DEB70D
:101D80002C970FB6F894DEBF0FBECDBF4F83588798
:101D900069877A878B879C87CE0107960E946E0C95
:101DA0008823D1F08A859B85892B39F058854F810E
:101DB000852F84238F3F09F076C08091B9019091DF
:101DC000BA01891349C02C960FB6F894DEBF0FBE36
:101DD000CDBFDF91CF91089586E0FE013796DE01F9
:101DE000119601900D928A95E1F79F812885809147
:101DF000BA014091B9016A857B85672BF1F2922384
:101E00009F3FD9F290E09C012F5F3F4F277033270F
:101E10004217130671F40E9491071092BA011092B2
:101E2000B90186E0EBEEF1E0DF011D928A95E9F75A
:101E3000C4CF66E070E00E947F32DC01A554BE4F43
:101E400086E0FE01319601900D928A95E1F720938C
:101E5000BA010E94DB0BB1CF90E066E070E00E9417
:101E60007F3285549E4F0E946E0C882309F4ABCFBD
:101E70008091B90190E066E070E00E947F32FC0141
:101E8000E554FE4F40815181628173818481958147
:101E90000E94A20A8091B90190E00196877099276B
:101EA0008093B9018ACF69857A858B859C850E944C
:101EB000A20A83CF682F80910001909101010C94B8
:101EC000012A682F80910001909101010C940C2A45
:101ED00080910001909101010C94172A80911602C3
:101EE00008958091980390919903892B91F00E9415
:101EF000BC2A2091140230911502AC01421B530BF5
:101F00009A0181E040919803509199032417350775
:101F100008F480E08170089580911302859585957D
:101F20008595089580911302877008950E94BC2AB8
:101F30002091110230911202821B930B2091980381
:101F4000309199038217930748F08091130282FB26
:101F5000882780F991E089278170089580E0FCCF7F
:101F600090911302977081E009F480E008958091C8
:101F70003902089590913902982B9093390208956F
:101F8000982F909580913902892380933902089582
:101F90001092390208958091380208959091380284
:101FA000982B909338020895982F9095809138023D
:101FB0008923809338020895109238020895809101
:101FC0001702089508950C94E20F90911602981745
:101FD00021F0809316020C94E30F0895809116026D
:101FE000882329F01092160280E00C94E30F0895E4
:101FF00008950C94F80FCF93C82F8091830382FD2E
:1020000010C0809117028C1761F00E94BC2A909337
:10201000150280931402C09317028C2FCF910C9459
:10202000F90FCF91089580911702882349F01092FB
:102030001702109215021092140280E00C94F90F0E
:102040000895CF93DF93E0910001F0910101809119
:1020500039028083E0910001F0910101808190912B
:102060003802892B8083809117028823E9F08091C0
:10207000980390919903892B29F00E94710F811187
:102080000E941310E0910001F09101018081909174
:102090001702892B808380910001909101010E9499
:1020A000692981110E941310C0910001D091010192
:1020B00040E250E061EF71E0CE010E94CE32892B08
:1020C00069F080E2FE01A1EFB1E001900D928A95E6
:1020D000E1F7CE01DF91CF910C941329DF91CF91DD
:1020E000089508950C947110962F2091830322FD7A
:1020F00016C0682F660F660F660F692B6093130278
:102100000E94E20A0E94BC2A90931202809311025C
:10211000809113028595859585950C9472100C9489
:10212000E20A10921302109212021092110280E041
:102130000C9472109091130280958923809313025E
:10214000282F277091F4282F082E000C330B92179C
:10215000130659F09091830392FD07C085958595EC
:1021600085950E94ED0A0C94911008959091830337
:1021700092FB222720F9281769F080FB92F99093AF
:10218000830380918203909183030E94011182E076
:102190000C949A1008958091830382FB882780F91C
:1021A00091E089270C94B61081E00C94B61080E081
:1021B0000C94B6106FEF7FEF90E080E00C94273323
:1021C00090E080E00E940333893E9E4F11F40C940E
:1021D000911880E0089582E090E00C94FB3283E057
:1021E00090E00C94FB32CF9384E090E00E94FB32AD
:1021F000C82F82E290E00E94FB32982F8C2FCF9163
:102200000895CF93682FC92F84E090E00E9409338E
:102210006C2F82E290E0CF910C940933AB01BC01AA
:102220008FE090E00C941B33AB01BC0183E190E0A4
:102230000C941B3360E070E0CB010C94141160E04F
:1022400070E0CB010E940E110C941A1169EE7EEF22
:1022500090E080E00E94273360E082E090E00E94FE
:10226000093360E083E090E00E9409331092B801E6
:1022700060E084E090E00E94093360E082E290E058
:102280000E94093360E085E090E00E94093360E03D
:1022900086E090E00E9409336FEF87E090E00E94B3
:1022A000093340E050E0BA0188E090E00E941B331F
:1022B00060E08DE090E00E94093340E050E0BA0118
:1022C00088E190E00E941B3360E087E190E00E948B
:1022D000093340E050E0BA018CE190E00E941B33EA
:1022E00070E060E080E290E00E94273340E050E040
:1022F000BA0188E190E00E941B3380E00E94AA1896
:102300000E94E5180C941F110C942611682F8EE082
:1023100090E00C9409330E94C82A6093460270939F
:10232000470280934802909349026093420270935F
:1023300043028093440290934502089508950895BE
:102340000C949F1108950C94A21182E494E10E94D0
:10235000FD280E94671C0E9469210E949E110C9416
:10236000A01181E008950C94B111089508950E9480
:10237000B5110C94B6110E945C140C94BD050E941A
:10238000B32A0E94F4180E9448150E94BB110C94B5
:10239000A3117F928F929F92AF92BF92CF92DF92C2
:1023A000EF92FF920F931F93CF93DF9300D000D053
:1023B0000F92CDB7DEB70E945D15B82E81110E9435
:1023C0008B115AE3852E52E0952E10E000E0702E1E
:1023D000802F0E9492147C01F401C190D1904F0192
:1023E000C816D90609F452C080914A0281FD0E94A4
:1023F0009B14C6018E259F25A12CCC24C394D12CDF
:102400009C012C213D21232BD9F10E94B31188235B
:10241000A9F0A9827A82EC20FD2081E0EF2809F45E
:1024200080E08B830E94BC2A8160782F9D838C83FF
:1024300049815A816B81892F0E94E605000F111F87
:10244000F801E65CFD4F808191818C259D2591836B
:10245000808381E0B11001C080E00F900F900F9059
:102460000F900F90DF91CF911F910F91FF90EF9000
:10247000DF90CF90BF90AF909F908F907F90089506
:10248000A394CC0CDD1CFAE0AF12BACF0F5F1F4F44
:102490000430110509F09BCF8FEF89838A831B825B
:1024A0000E94BC2A8160782F9D838C8349815A8148
:1024B0006B81892F0E94E605CCCF0E947D280C9469
:1024C000DE240E94C9110E945D120E9468170C94BC
:1024D000CD05CF93DF930E946713EC0181159245E0
:1024E00008F05EC0C11581E5D80708F0BDC0C83E40
:1024F000D105F8F4C03ED10578F4C83AD10580F48E
:10250000C53AD10508F09FC0C130D10529F0CE01F0
:102510000497813A910550F4CE01DF91CF9108954F
:10252000CE01885A9109479708F490C0D0E0C0E0E6
:10253000F3CFC11590E5D907A0F4C11520E4D20767
:1025400008F08FC0CF3FD10509F028F4C03FD10576
:1025500068F3D065E1CFCE019A9581159F41E0F2F5
:10256000E5CF9E01B4E036952795BA95E1F7237043
:102570008C2F86958695837090E0D5E0880F991F03
:10258000DA95E1F7922BC37021E030E002C0220F10
:10259000331FCA95E2F7822B932BEC01DC68BCCF8A
:1025A000C11586E5D80740F5C11595E5D90708F0AE
:1025B00071C0C11524E5D207D0F48C2F869586957D
:1025C0009E0123703327C115D34508F052C0C1E0E6
:1025D000D0E002C0CC0FDD1F2A95E2F790E0A5E025
:1025E000880F991FAA95E1F7C82BD92BD7CFDC2FDD
:1025F000CC27C46FD06A90CFC1152AE5D20788F4E2
:10260000C11589E5D80708F050C0CE0198558F3F15
:10261000910511F008F08ACFDC2FCC27C06FD06A6B
:102620007BCFCE0190568115904208F07FCF8D2F41
:102630008F710E94FF1390E0982F882788279F7141
:102640008C2BEC0130C0A497D06466CFC85AD0E080
:10265000CC0FDD1FC25BDE4F0990D881C02DD46442
:102660005BCFDF70D06A58CFDC2FCC27C16FD06A28
:1026700053CFC1E0D0E002C0CC0FDD1F2A95E2F7B6
:1026800090E065E0880F991F6A95E1F7C82BD92B78
:10269000DA6842CF8C2F0E94FF13C82FD0E0DC2FC6
:1026A000CC27CC27DF71D06237CF8C2F8F700E9460
:1026B000FF1334E0D695C7953A95E1F7CF709C2F7C
:1026C000EC01D06929CF0E9411200C946912803E40
:1026D000910599F1C8F48133910509F476C048F465
:1026E0008932910509F46AC08A32910509F474C0EF
:1026F000089589339105D1F082389105B9F0853379
:10270000910509F454C00895843E910599F138F477
:10271000823E9105F9F0833E910509F10895863EC8
:10272000910599F1873E9105B9F1089520918203B1
:102730002370A1F080EE90E008952091820320FDA7
:1027400052C03091830330FF09C024FF4FC090E096
:1027500080E004C02091820322FDF7CF08952091EC
:10276000820322FD46C03091830330FDE3CF24FF76
:10277000F5CFEDCF2091830321FFF0CF809182032D
:1027800084FDE5CF87EE90E008952091820323FF3A
:10279000E5CF24FDDCCFF6CF2091820323FD2CC0B2
:1027A0003091830331FFE3CF84EE90E008952091D0
:1027B000820325FFD3CF89E290E008952091820320
:1027C00025FFCCCF85E390E008952091820326FF7A
:1027D000C5CF8AE290E008952091820326FFBECF04
:1027E00081E390E0089589E390E0089583EE90E01E
:1027F000089582EE90E0089586EE90E0089590911D
:10280000820392FF06C0282F28712830F9F4877FB1
:10281000846093FF06C0282F28712831F1F4877E49
:1028200084612091830320FF06C0382F387138302F
:10283000D9F4877F816021FF06C0282F28712831B5
:10284000D1F4877E816194FD877E0895282F2471BD
:102850002430F9F68B7F8860DCCF282F2471243157
:1028600001F78B7E8861DDCF382F3171313019F758
:102870008E7F8860E0CF282F2171213121F78E7E55
:102880008861E1CF80E008950C94DA100E945D1514
:102890008FE39CE90197F1F700C000000E945D15ED
:1028A00080E00E94921480FF04C00E9444140C94A3
:1028B0001B2B08950C9446140E94E010811102C055
:1028C0000E9484110E94EB1080934A020E94F31030
:1028D00090938303809382030E945A140E94EF1006
:1028E0000E94BC0A8091B7010C94CF0A08950C9401
:1028F000761408950C947914E82FF0E0EE0FFF1F82
:10290000E457FC4F21E030E002C0220F331F6A95EC
:10291000E2F7808191812823392381E0232B09F478
:1029200080E00895E82FF0E0EE0FFF1FE457FC4F22
:10293000808191810895089580EA8A95F1F708953C
:1029400000C008950C949C14F894E82FE295EF7061
:10295000F0E041A18F7021E030E0B90102C0660FC4
:10296000771F8A95E2F7CB01962F9095942391A338
:1029700092A1892B82A378940895CF93DF9386E95F
:102980000E94A41485E90E94A41480E30E94A41468
:1029900081E30E94A414CCE7D1E089918F3F11F02C
:1029A0000E94A41481E0C638D807B9F7DF91CF910F
:1029B0000895AF92BF92DF92EF92FF920F931F9311
:1029C000CF93DF93EC01D62E062F10E0C8018A5773
:1029D0009E4F7C01FC0180818F3F09F44FC0F89429
:1029E000E82FE295EF70F0E091A18F7021E030E0E8
:1029F00001C0220F8A95EAF7892F822B81A382A139
:102A00002095282322A378940E94A014ECE7F1E0FB
:102A100066E871E041E050E0B12CA12C21912F3FFC
:102A200081F0A22FA295AF70A05EB0E08C9190E0F3
:102A30002F7002C0959587952A95E2F79A0180FF3D
:102A400002C020E030E0A22AB32A440F551F6E17BF
:102A50007F0721F7F70180818F3F11F00E94A414B6
:102A600061E0A114B10409F460E08D2D0E94A2146C
:102A7000000F111FC00FD11FB982A882DF91CF9123
:102A80001F910F91FF90EF90DF90BF90AF9008954E
:102A90000E94BD1488E0ECE8F3E0DF01982F1D925E
:102AA0009A95E9F7E4E8F3E0DF011D928A95E9F7EA
:102AB00084E00E94AB150C945304FF920F931F9374
:102AC000CF93DF93CDB7DEB728970FB6F894DEBF6C
:102AD0000FBECDBFFE01319688E0DF011D928A95C1
:102AE000E9F710E0FE2E0F2F612F8F2D902F0E94FF
:102AF000D9141F5F1430C1F748E050E06F2D702FDC
:102B000084E893E00E94CE329C0111E0892B09F405
:102B100010E0232B49F088E0EF2DF02FA4E8B3E07C
:102B200001900D928A95E1F7212F44E06CE873E063
:102B300084E893E00E94AC150E945504812F2896EA
:102B40000FB6F894DEBF0FBECDBFDF91CF911F91BE
:102B50000F91FF9008950895FF920F931F93CF93C5
:102B6000DF93F82E092F162FD72FC42F222349F0D9
:102B700081E080934D020E94BC2A90934C02809386
:102B80004B0280914D028823A1F080914B029091DD
:102B90004C020E94E82A059760F0EF2DF02FA12F3C
:102BA000BD2F90E080E0D0E08C179D0744F010929C
:102BB0004D02DF91CF911F910F91FF9008952191C8
:102BC00031912D933D930196EFCF0E94FF2C0E94EF
:102BD000BF110C940B2D0E940F2D0E9461120C94BA
:102BE000292D0E945C2A0E94E62C0E94A5110E94B9
:102BF000E5150E94EB150E94B711FBCF809154029E
:102C000020919E0330919F0380FF13C080910701A4
:102C100090E0B9010E947F329C0136952795369548
:102C2000279520383105A0F52115310599F1822F1E
:102C3000089581FF0AC08091070190E0B9010E94C8
:102C40007F329C0136952795ECCF82FF08C080919A
:102C5000070190E0B9010E947F329C01E2CF809190
:102C600053028823F1F2409106016091070170E060
:102C7000841710F0C901EFCF90E00E947F32B901B4
:102C80000E947F32642F70E00E9490329B01C9CF76
:102C90008FE7089581E008958091540280FF0CC071
:102CA0006091030170E0759567957595679561155D
:102CB000710559F1862F089581FF06C060910301C7
:102CC00070E075956795F3CF6091030170E082FD28
:102CD0000CC0609152026623A9F0209102018091FC
:102CE000030190E0621730F0BC0160387105F8F222
:102CF0008FE7089570E00E947F32622F70E00E949B
:102D0000A432F3CF61E070E0D5CF81E00895805F19
:102D1000803108F045C0E82FF0E0ED5AFC4C0C94EF
:102D2000B8320E94FE1581958093580208950E9442
:102D3000FE15FACF0E94FE158195809357020895E3
:102D40000E94FE15FACF0E944C16809359020895F6
:102D50000E944C168195F9CF0E944C168195809364
:102D60005A0208950E944C16FACF80915602816053
:102D7000809356020895809156028260F9CF809127
:102D800056028460F5CF809156028860F1CF809121
:102D900056028061EDCF809154028160809354028D
:102DA0000895809154028260F9CF8091540284602A
:102DB000F5CFE82F30915802209157029091590297
:102DC00080915A02E03FA1F437FD109258028091A1
:102DD000570290915802892B11F41092530280915E
:102DE000590290915A02892B11F4109252020895BF
:102DF000E13F19F413164CF3EACFE23F29F427FF21
:102E0000E6CF10925702E3CFE33F19F41216CCF34A
:102E1000DECFE93F29F41916D4F610925902D7CF24
:102E2000EA3F19F497FFD3CFF8CFEB3F29F487FFA0
:102E3000CECF10925A02CBCFEC3F19F41816CCF338
:102E4000C6CFE45FEC3008F0C2CFF0E0ED59FC4CA7
:102E50000C94B832809156028E7F80935602B7CF81
:102E6000809156028D7FF9CF809156028B7FF5CFEE
:102E700080915602877FF1CF809156028F7EEDCFF1
:102E8000809154028E7F80935402A1CF809154028E
:102E90008D7FF9CF809154028B7FF5CF0E94BC2AA1
:102EA0002091570230915802232B21F08093500239
:102EB000909351022091590230915A02232B21F014
:102EC00080934E0290934F0285E592E00C942E2958
:102ED000CF92DF92EF92FF920F931F93CF93DF93E6
:102EE00000D000D000D0CDB7DEB726E0E5E5F2E0B7
:102EF000CE010196DC0101900D922A95E1F7C09078
:102F00005702D0905802E0905902F0905A02109265
:102F10005702109258021092590210925A022C2D08
:102F20002D298C0191F080915002909151020E94C4
:102F3000E82AFC0120915302222309F440C0809129
:102F400008018E171F0608F449C08E2D8F2991F0B5
:102F500080914E0290914F020E94E82AFC0120913C
:102F60005202222309F47DC0809104018E171F06AE
:102F700008F486C08091570290915802892B909155
:102F80005902892B90915A02892B11F00E944E17F9
:102F900086E0F801A5E5B2E001900D928A95E1F78F
:102FA00026960FB6F894DEBF0FBECDBFDF91CF914E
:102FB0001F910F91FF90EF90DF90CF900895809137
:102FC000090190E06AE070E00E947F328E179F074F
:102FD00008F0BBCF2F5F2093530202C02F3FD1F7E1
:102FE000CC2051F00E94FE156FEF1C140CF461E030
:102FF0000E94763280935702DD2051F00E94FE1528
:103000006FEF1D140CF461E00E9476328093580239
:1030100080915702882309F498CF209158022223E7
:1030200009F493CF082E000C990B65EB70E00E9419
:103030007F32992371F090935702822F220F990BC0
:1030400065EB70E00E947F32992339F0909358022B
:103050007CCF81E080935702F0CF81E080935802CB
:1030600074CF8091050190E06AE070E00E947F32A9
:103070008E179F0708F07ECF2F5F2093520202C069
:103080002F3FD1F7EE2051F00E944C166FEF1E1427
:103090000CF461E00E94763280935902FF2051F0D7
:1030A0000E944C166FEF1F140CF461E00E94763200
:1030B00080935A028091590220915A02882309F480
:1030C00059CF222309F456CF082E000C990B65EB3B
:1030D00070E00E947F32992371F090935902822F01
:1030E000220F990B65EB70E00E947F32992339F033
:1030F00090935A023FCF81E080935902F0CF81E054
:1031000080935A0237CF86E0E5E5F2E0DF011D92B9
:103110008A95E9F7109253021092520210925402CB
:10312000089583E290E00E94FB328A3E89F484E2B3
:1031300090E00E94FB328B3B59F485E290E00E94C4
:10314000FB3291E0833A09F090E0892F8170089575
:1031500080E0FCCFCF93C82F6FEF81116AEE83E23E
:1031600090E00E9409336FEFC1116BEB84E290E0B5
:103170000E9409336FEFC11163EA85E290E0CF91BD
:103180000C9409330895CF93DF9300D000D0CDB7CE
:10319000DEB786E290E00E94FB32282F30E050E05C
:1031A00040E0CA01B9010F900F900F900F90DF918E
:1031B000CF9108950895CF93C62F0E94DA186C2FEF
:1031C00086E290E0CF910C94093380E00E94AA1827
:1031D00060E070E0CB010E94DB180E94E81E0E94B4
:1031E000792081E00C94AA180E94C2180E94C3188A
:1031F0000E94DA180E949118811102C00C94E518FF
:103200000895CF939C01FB01C281CC2301F182512F
:103210009F45409720F58EEE820F0E948920C0E0E6
:103220008C2FCF91089581E00E94E20A43E062E092
:1032300081E00E944A04F3CF81E00E94ED0A43E05E
:1032400062E081E00E944A04EBCF82E0F6CF803159
:103250009F4591F321313F45C1F3C1E0E1CF2031DA
:10326000EFE53E0701F382E021313F45E9F2D8CF97
:103270002FEFFC0120830895EF92FF920F931F938D
:10328000CF93DF93CDB7DEB72E970FB6F894DEBF9E
:103290000FBECDBF8D839E83162FAD81BE81EC9175
:1032A0008091210390912203892B79F0EE3F31F533
:1032B00011968C91833018F085508330F8F4612F8B
:1032C0008D819E810E94691C19C0E43150F4EE2367
:1032D00051F0E150E33138F4F0E0E159FC4C0C944A
:1032E000B832EE3F61F3612F8D819E810E943819C3
:1032F00005C0ED81FE81118289E08283612F8D817D
:103300009E812E960FB6F894DEBF0FBECDBFDF9123
:10331000CF911F910F91FF90EF900C94D72BAD811F
:10332000BE8111968C91823099F0833011F18130F9
:10333000D1F60E94C82A0E94BE326F83788789879F
:103340009A87ED81FE816283738384839583D6CFD0
:103350000E94C3180E94BE326B877C878D879E8730
:10336000AD81BE8112966D937D938D939C9315973D
:10337000C5CF8091230390912403892B09F4BECFFC
:10338000ED80FE8000E0802F0E949214F70192836E
:1033900083830F5FF2E0EF0EF11C0430A1F7AECF94
:1033A000AD81BE8111968C911197823009F09BCF2F
:1033B00012968D919D910D90BC91A02D89839A8339
:1033C000AB83BC83BC01CD010E94BE320E94DB18DE
:1033D00095CFED81FE814381628181810E945D1ED6
:1033E000982789279827AD81BE8115969C938E9347
:1033F000149784CFED81FE812481358132272327E4
:1034000032274381628181810E947F1E77CF0E9493
:10341000E81E74CF8FEFAD81BE818C936FCF0E9479
:103420002D20ED81FE81818369CF0E942F20982776
:1034300089279827AD81BE8112969C938E93119710
:103440005DCFED81FE81218132819381692F70E012
:103450009D3108F053CFAF014C5F5F4F922F832F08
:103460000E9432204BCF8091230390912403892B1B
:1034700009F444CFAD81BE8111962D913C911297F4
:1034800013969C911397692F70E09D3108F036CF09
:10349000AD014C5F5F4F922F832F0E9456202ECF9D
:1034A0000E9479202BCF0E94441EBBCFAD81BE81EC
:1034B00011962D913C91129713969C911397692F19
:1034C00070E09D3108F01ACFAD014C5F5F4F922F35
:1034D000832F0E94641F12CFED81FE8121813281F2
:1034E0009381692F70E09D3108F008CFAF014C5FE8
:1034F0005F4F922F832F0E94871F00CF809123035D
:1035000090912403892B09F4F9CE8D819E810E942C
:10351000D72BFFEF21EE84E0F15020408040E1F70F
:1035200000C000000E941B2BE9CE8F929F92AF92A9
:10353000BF92CF92DF92EF92FF920F931F93CF93A0
:10354000DF93CDB7DEB72A970FB6F894DEBF0FBE74
:10355000CDBF0BE512E0F12CE12C8FEBC82E8BE1F7
:10356000D82E99EEA92E9BE1B92E28E1822E2BE1CF
:10357000922EF801D182C082B382A2829582848287
:10358000F58AE48ABE016F5F7F4F8E2D0E94B81EC0
:10359000892B29F489859A85F801938B828BFFEF1B
:1035A000EF1AFF0A0A5E1F4F88E0E816F10409F7D8
:1035B0002A960FB6F894DEBF0FBECDBFDF91CF9134
:1035C0001F910F91FF90EF90DF90CF90BF90AF9041
:1035D0009F908F900895CF93DF9300D000D00F92EB
:1035E000CDB7DEB79093950380939403811520E2C5
:1035F000920748F40F900F900F900F900F90DF916B
:10360000CF910C94C4038EEF89838A831B820E941E
:10361000BC2A8160782F49815A816B81892F0F9054
:103620000F900F900F900F90DF91CF910C94E605C3
:103630000F931F93CF93DF938C01EB016BE073E04B
:103640008C2F0E94B81E892BA1F48091B403909115
:10365000B503009799F4DD27CB5EDC4F8881F80134
:1036600010821882833049F188F4813099F08230D9
:10367000C1F0DF91CF911F910F910895EFE9FFE025
:103680003197F1F700C000000197E3CF8430D1F00B
:10369000853079F780910B0390910C03009749F3E3
:1036A00006C080910D0390910E03009799F3DF916E
:1036B000CF911F910F910C94EB1A80910F03909171
:1036C0001003F3CF8091110390911203009779F7C3
:1036D00020910B0330910C0380910D0390910E0308
:1036E00021153105D9F2009711F7C901E0CFCF9329
:1036F000DF9300D000D00F92CDB7DEB79093950343
:1037000080939403811520E2920748F40F900F9064
:103710000F900F900F90DF91CF910C94AF038EEF2D
:1037200089838A8381E08B830E94BC2A8160782F01
:1037300049815A816B81892F0F900F900F900F90C4
:103740000F90DF91CF910C94E605CF93DF93D82FA4
:10375000C92F0E94771B8091B4039091B503009705
:1037600031F48D2F9C2FDF91CF910C94EB1AEFE960
:10377000FFE03197F1F700C000000197F0CF0F9301
:103780001F93CF93DF938C01862F6BE073E00E9431
:10379000B81E892BC9F4C0910B03D0910C0320975C
:1037A00099F0F8018081833069F4CE010E94A51B55
:1037B000CE010E94A51BCE01DF91CF911F910F91E9
:1037C0000C94A51B8430B8F7DF91CF911F910F9116
:1037D00008950F931F93CF93DF938C01EB016BE060
:1037E00073E08C2F0E94B81E892B09F063C0FE0184
:1037F000FF27D8018C91EB5EFC4F8130D1F41996F4
:103800008C91199781115BC01A968C91882309F4C9
:1038100056C082E0808380910D0390910E03009743
:10382000D9F480910B0390910C03009709F442C0E6
:1038300013C08230E9F519968C91199781112DC02A
:103840001A968C9181110EC083E0808380910F03C2
:1038500090911003009719F1DF91CF911F910F9173
:103860000C94771B84E08083809111039091120364
:10387000009791F780910B0390910C03009711F141
:103880000E94A51B80910D0390910E03009721F7D4
:1038900080910B0390910C03DFCF85E080838091B2
:1038A0000B0390910C03009729F00E94A51BF0CF09
:1038B00086E08083DF91CF911F910F91089581E081
:1038C0008083AFCF80910D0390910E03AECF0C9407
:1038D000951ADF92EF92FF920F931F93CF93DF938E
:1038E000CDB7DEB72A970FB6F894DEBF0FBECDBFB7
:1038F0008C01603239F5DC011196EC911197EE30B4
:1039000008F5F0E0EE57FC4C0C94B83288E0EAE899
:10391000F1E0DE01119601900D928A95E1F7F80130
:1039200031968FE1DF011D928A95E9F784E0F80175
:10393000808388E0FE013196D801149601900D92A3
:103940008A95E1F72A960FB6F894DEBF0FBECDBF79
:10395000DF91CF911F910F91FF90EF90DF9008952D
:1039600084EA8C9381E011968C93119712961C92A5
:10397000129713961C92E6CFFC01838190E0982F5A
:1039800088272281820F911D092E000CAA0BBB0BE8
:1039900035E0880F991FAA1FBB1F3A95D1F7AC01DC
:1039A000BD01405E5F4F6F4F7F4F481759076A0751
:1039B0007B0740F2843AF1E09F07A105B10510F6BC
:1039C000453A21E052076105710520F044EA51E0D3
:1039D00060E070E0481B590BBC016C597D4FC80179
:1039E0002A960FB6F894DEBF0FBECDBFDF91CF9100
:1039F0001F910F91FF90EF90DF900C94C53240E241
:103A000050E06FEF70E00E94E43280912303D80110
:103A10008C938091210311968C93119712961C928E
:103A2000129713961C92139714961C92149781E088
:103A300015968C9387CF81E090E09093220380933A
:103A4000210382E390E09093200380931F030E9460
:103A5000BC2A90931E0380931D0374CF8091210391
:103A600090912203892B91F160E080E00E947C1408
:103A7000E82E61E080E00E947C14F82E80911D0306
:103A800090911E030E94E82A8536910550F1EE20A0
:103A900041F1FF2031F10E94BC2A90931E038093D4
:103AA0001D0380911F0390912003019790932003A1
:103AB00080931F03892B51F410922203109221034B
:103AC00081E090E09093240380932303809123036B
:103AD000F801808380912103818380911F03828379
:103AE00031CF82E390E09093200380931F03EECFC9
:103AF000109224031092230325CF40E250E0BC0132
:103B000012968D919C912A960FB6F894DEBF0FBE47
:103B1000CDBFDF91CF911F910F91FF90EF90DF907C
:103B20000C94CB21BC016F5F7F4F4FE150E0FC0153
:103B3000828193810E94FD21D8018C9303CFBC0127
:103B40006C5F7F4F4CE150E0FC01828193810E94C9
:103B50002B22F2CF2A960FB6F894DEBF0FBECDBF50
:103B6000DF91CF911F910F91FF90EF90DF900C9418
:103B70008E21FC018281813071F0823019F1811136
:103B8000E1CE31968FE1DF011D928A95E9F788E059
:103B9000F8018083D7CE13968C919AE0D92EFE013E
:103BA00031967F01DF01ED2D1D92EA95E9F7B7010E
:103BB0000E94B81ED8018D93F70101900D92DA94FE
:103BC000E1F7C0CE13968C919AE03496DE011196FF
:103BD00001900D929A95E1F7BE016F5F7F4F0E94B1
:103BE000D01EF80180830E94951AACCECF93DF934C
:103BF000EC01FB01828181112FC0D755CF3FD10548
:103C000009F050F56BE073E08C2F0E94B81E892BF1
:103C100019F5CE0166E170E00E947F32FC01E55AA1
:103C2000FD4F86818130E1F480910B0390910C036C
:103C3000892B91F080910D0390910E03892B61F0F7
:103C400080910F0390911003209111033091120382
:103C5000822B932B892B61F081E0DF91CF91089526
:103C60008230D1F780910F0390911003892BA1F33B
:103C7000CE0166E170E00E947F32855A9D4FFC01C3
:103C8000108A0E947427E8CF84E00895E82F862FD9
:103C900090E064E170E00E947F3250E0440F551FD5
:103CA0009C01240F351F8E2F90E060E570E00E948C
:103CB0007F32820F931F879608950F931F93CF93A0
:103CC000DF93982F962B9430B8F44A30A8F40E94D2
:103CD000461E8C010E94FB32C82FD0E0DC2FCC277F
:103CE000C80101960E94FB329E01282BC901DF9179
:103CF000CF911F910F91089590E080E0F8CF0F933E
:103D00001F93CF93DF93E901982F962B9430D0F433
:103D10004A30C0F421153C4531F420912303309101
:103D20002403232B79F00E94461E8C016D2F0E94E4
:103D300009336C2FC8010196DF91CF911F910F912C
:103D40000C940933DF91CF911F910F910895823226
:103D5000910520F489599E4F0C94FB3280E0089520
:103D60008232910520F489599E4F0C9409330895AD
:103D7000362F272F883088F490E06AE070E00E94A8
:103D80007F32BC0167577E4F4AE050E0832F922F6D
:103D90000E94EB3290E080E008958FEF9FEF08954E
:103DA000362F272F883088F490E06AE070E00E9478
:103DB0007F32BC0167577E4F4AE050E0832F922F3D
:103DC0000E942D3390E080E008958FEF9FEF0895DB
:103DD0008F929F92AF92BF92CF92DF92EF92FF921B
:103DE0000F931F93CF93DF93CDB7DEB72A970FB60C
:103DF000F894DEBF0FBECDBF8090230390902403C4
:103E000081E090E09093240380932303F12CE12C34
:103E1000C70168E270E00E947F328C01B12C15C0AE
:103E2000F601259134914A2D6B2D8E2D0E947F1E17
:103E300022E0C20ED11CA3943AE0A312F1CF065F98
:103E40001F4FB39484E0B81649F0C801880F991F3A
:103E50009C012C583F4F6901A12CE2CF3FEFE31AA0
:103E6000F30A84E0E816F10499F60E948E211A8282
:103E700019821C821B821E821D8218861F8288EC7A
:103E800090E09A87898710E0BE016F5F7F4F812F96
:103E90000E94D01E1F5F1830B9F7909224038092C1
:103EA00023032A960FB6F894DEBF0FBECDBFDF9175
:103EB000CF911F910F91FF90EF90DF90CF90BF9027
:103EC000AF909F908F900895EF92FF920F931F9362
:103ED000CF93DF938C01EA017A01E60EF71EC80149
:103EE0008796CE15DF0539F4DF91CF911F910F91A1
:103EF000FF90EF900895003421E0120730F40E9403
:103F0000FB3289930F5F1F4FEACF80E0FACF6F92A9
:103F10007F928F929F92AF92BF92CF92DF92EF9259
:103F2000FF920F931F93CF93DF93EC017B018A01E4
:103F300080349140C8F480E491E08C1B9D0B86177F
:103F4000970790F03E0137E2630E711C80912303C6
:103F500090912403892BB9F0E00EF11ECE018796D3
:103F60000E151F0509F051C0DF91CF911F910F91E0
:103F7000FF90EF90DF90CF90BF90AF909F908F9089
:103F80007F906F9008956E0181E0C822DD24C0FF0C
:103F90000FC0CE0186960E94FB32F80190818927DE
:103FA0009827892781159C4519F48FEFF8018083A4
:103FB000CE018E0D9F1D570180FF13C0F1E0AF1A97
:103FC000B10848018A0C9B1CC3018E0D9F1D0E94E5
:103FD000FB32F401908181159C4519F48FEFF401B7
:103FE0008083F801EC0DFD1D2FEFCA14DB0408F0EF
:103FF000B3CF9081818181159C4511F42083218369
:1040000082E0C80ED11C3296F0CFC034E1E0DE076A
:1040100020F4F80160810E9409330F5F1F4F219641
:104020009DCF462F672F2091210330912203232B10
:1040300089F47E3F39F44E3F69F480919403909166
:1040400095030895982F972B943020F44A3010F45C
:104050000C945D1E90E080E0089580E1089587E271
:1040600092E00895EF92FF920F931F93CF93DF9307
:104070008C01EA017A01E60EF71EC80187529E4FB5
:10408000CE15DF0539F4DF91CF911F910F91FF908D
:10409000EF900895073222E0120730F40E94FB32BD
:1040A00089930F5F1F4FE9CF80E0FACFEF92FF9225
:1040B0000F931F93CF93DF938C01EA017A01E60EF1
:1040C000F71EC80187529E4FCE15DF0539F4DF91E8
:1040D000CF911F910F91FF90EF900895073222E04A
:1040E000120718F468810E94093321960F5F1F4F51
:1040F000E8CFCF93DF93C9EDD1E060E0CE010E941D
:1041000009332196C11584E0D807B9F7DF91CF9123
:104110000895CF92DF92EF92FF920F931F93CF9368
:10412000DF9300D000D0CDB7DEB7F82E2FE02817F0
:1041300040F08FEF93E00E94FB3209ED11E08823FD
:10414000C9F00F900F900F900F90DF91CF911F91BA
:104150000F91FF90EF90DF90CF900895011544E00C
:10416000140779F3C8010E94FB32811101C0FA944F
:104170000F5F1F4FF110F2CF80911C0190911D0134
:10418000A0911E01B0911F0189839A83AB83BC83E8
:1041900078015FEFE51AF50AC8010E94FB328983B6
:1041A0001A82882371F2813009F046C0680182E0EA
:1041B000C80ED11CC7010E94FB32E82E8A838823D7
:1041C00009F4BFCFC6010E94FB32F82E8FEF8E0D8F
:1041D000833068F46801E3E0CE0ED11CFB82FF203F
:1041E00021F0CE0101960E94B3058601D1CFF4E003
:1041F000EF12FBCF680124E0C20ED11CC801039668
:104200000E94FB32FF2009F49CCF882309F499CF48
:104210008150990B6FEF70E00E947F324F2D41501B
:10422000550B840F951F019700F3EFE9FFE03197DD
:10423000F1F700C00000F7CFCE0101960E94B30550
:104240006701D3CFE6E9F3E0848195812AE030E08D
:10425000B9010E9490326093090186818093080120
:1042600082858093070184858093060186859785E2
:10427000B9010E9490326093050180898093040106
:10428000828980930301848980930201089580913B
:104290009603909197030C9412250F931F93CF933D
:1042A000DF9306E913E0D0E0C0E0CE010E94A71E34
:1042B000F80161918F01861719F0CE010E94B01E9E
:1042C0002196C232D10589F7DF91CF911F910F91CD
:1042D00008950F931F93CF93DF9306E913E0D0E087
:1042E000C0E0CE010E94A71EF80181938F012196A4
:1042F000C232D105B1F7CEE0D4E0FE0185919491B0
:10430000009711F0FC0109952896F4E0C63ADF0702
:10431000A1F7DF91CF911F910F910895E6E9F3E0A6
:10432000128E138E8FEA90E09183808385E0848FD4
:1043300088E893E1938382838AE090E09583848385
:1043400024E130E03783268348E050E051874087FE
:10435000938782872EE130E0358724879787868789
:1043600020E530E0318B208B538B428B48E250E0CC
:10437000558B448B42E350E0578B468B48EC50E022
:10438000518F408F158E978F868F31A320A30E9467
:104390004D210C946921EF92FF920F931F93CF93BD
:1043A000DF937C01EB018A016FEF70E0CE010E9488
:1043B000E43228E034E0A0EAB4E090E080E0AC0130
:1043C0004E5F5F4F0417150788F0F90165917491EE
:1043D000E616F70630F48C0F9D1FFC017183608395
:1043E000CA01285F3F4FA217B30749F7DF91CF916A
:1043F0001F910F91FF90EF900895CF93DF93EC0101
:10440000CB01DA0128E034E0F90145915491C41759
:10441000D50749F0285F3F4F44E0203A3407A1F721
:104420008FEF9FEF15C0A9014E5F5F4FFA016591B5
:104430007491A617B707A0F3FA01459154912C5F28
:104440003F4FF901659174910E94DB3290E080E06A
:10445000DF91CF910895CF93DF93DC019A01C8E0FB
:10446000D4E0FE0185919491A817B90741F02896F0
:1044700084E0C03AD807A9F78FEF9FEF1DC0CE01A7
:104480000296FC014591549124173507A8F3FC01CD
:1044900045915491FE013496859194910E94DB32AE
:1044A0000E944D21FE01369685919491009711F05E
:1044B000FC01099590E080E0DF91CF910895809113
:1044C000AE039091AF0308958091B3038170089576
:1044D0008091B3038695817008958091B30382FB28
:1044E000882780F908958091B30383FB882780F99A
:1044F00008959C018832910568F44E97E8F42450A1
:1045000031098091B103829581702A313105C8F05B
:1045100080E008958933910558F48D32910510F4A7
:104520008B97B1F78091B10382FB882780F909C08E
:1045300084369105B9F3ECCF8091B10383FB8827D2
:1045400080F991E0892708958091B10385FB882740
:1045500080F908958091B10386FB882780F908953A
:10456000CF93DF93EC01FB018281882309F4F2C031
:10457000C136FDE5DF0749F048F5C631ECE5DE0759
:10458000E0F4C230FCE5DF07F0F00E94F3109093F6
:10459000830380938203C631ECE5DE0748F5C23021
:1045A000FCE5DF07C0F480918203909183030E94B1
:1045B00001110E94910780E006C09E012A5F3C45E0
:1045C0002930310510F3DF91CF910895C53A9DE56B
:1045D000D907C9F7DACFFE01E350FC458091820389
:1045E0008160E331F10528F5E057FC4C0C94B832BA
:1045F000C3308DE5D80770F4CA3F9CE5D90798F21F
:10460000FE01EB5FFC45E830F10510F5ED55FC4C83
:104610000C94B832C136EDE5DE0709F494C09091F0
:104620008203892F8E7F90FF8160C53ADD4509F0B6
:10463000BACF80938203B7CF809182038260F9CF93
:10464000809182038460F5CF809182038860F1CFEE
:1046500080918303816080938303A5CF809183033E
:104660008260F9CF809182038061E3CF80918203E1
:104670008062DFCF809182038064DBCF0E9491074C
:10468000809182038068D5CF809182038C60D1CFE6
:10469000809183038360DFCF809182038E7FC9CFB7
:1046A000809182038D7FC5CF809182038B7FC1CFA4
:1046B00080918203877FBDCF809183038E7FCBCF94
:1046C000809183038D7FC7CF809182038F7EB1CF8E
:1046D000809182038F7DADCF809182038F7BA9CFA4
:1046E0000E949107809182038F77A3CF80918203EC
:1046F000837F9FCF809183038C7FADCF8091820396
:1047000082FB992790F921E0922790FB82F990FB98
:1047100083F98FCF80918303982F909591708E7F2E
:10472000892B90FB81F997CF0E949107909182038A
:10473000892F97FB87F980587CCF81E00E948611F2
:1047400032CF80E0FBCF90918203892F8F7E94FF40
:1047500080616FCF81E037CF80910A01877F80939E
:104760000A0182E00E94D40F80910A0184FF06C0F2
:104770008F7E80930A0182E00E94BA0F80910A0125
:1047800085FF06C08F7D80930A0180E20E94BA0FE8
:104790000C942110CF93DF93EC01662319F082E093
:1047A0000E94CE0FCE019056811520E2920720F094
:1047B000905E8115904108F4DD27CE01DF91CF9105
:1047C0000C94AF039C013056211540E2340720F0D1
:1047D000305E2115304108F499270C94C403AC01D4
:1047E00023E0969587952A95E1F78E719927FC012C
:1047F000EB5DFC4F0190F081E02D4F70552721E0DB
:1048000030E002C0220F331F4A95E2F7662341F0E1
:10481000E22BF32B8B5D9C4FDC01ED93FC93089511
:1048200020953095E223F323F5CF9C01FC0183E032
:10483000F695E7958A95E1F7EE71FF27EB5DFC4F62
:104840002F70332781E090E0AC0102C0440F551F68
:104850002A95E2F79A01808191812823392381E00A
:10486000232B09F480E00895DF92EF92FF920F93DB
:104870001F93CF93DF93EC017B01D42E89018091AC
:104880000A0182FF87C020914B0330914C032C1703
:104890003D0719F0209709F07DC090910A019B7F98
:1048A00090930A0161E091FD10C080914D039091B9
:1048B0004E03A701481B590B61E080910B019091B9
:1048C0000C014817590708F460E0617080910A01F3
:1048D00060FB81F980930A01C9010E94EF230E94C5
:1048E000B70F81FF08C080910A01806180930A019F
:1048F00082E00E94C00F0E94B70F85FF08C0809120
:104900000A01806280930A0180E20E94C00F6091D8
:104910000A0166956170A80180914B0390914C0348
:104920000E94CA23D11014C08091B4039091B503A2
:10493000009741F560910A0166956170A801809128
:104940004B0390914C030E94E2230E94AC2331C0A0
:10495000B80180914B0390914C030E94A4228823BC
:1049600019F3B80180914B0390914C030E94AA2245
:104970008111DACFDF91CF911F910F91FF90EF90CE
:10498000DF900895EFE9FFE03197F1F700C00000F4
:104990000197CECFCE010E941524682FA801CE0129
:1049A0000E94E22380914B0390914C038C179D074A
:1049B00061F2F0924E03E0924D03DCCF8091B1039F
:1049C00080FF1EC080910A0182FF1AC00E94BC2A8B
:1049D000BC0180914D0390914E039B01281B390B24
:1049E00080910B0190910C012817390748F025E4BC
:1049F00033E041E080914B0390914C030C943424BC
:104A0000089590910A01892F8E7F90FF8160809395
:104A10000A010C94AC2380910A018E7F80930A01D5
:104A20000C94AC2390930C0180930B010895CF92CA
:104A3000DF92EF92FF920F931F93CF93DF93EC01DE
:104A40008B018091B10380FD0CC0FF24F3948F2D66
:104A5000DF91CF911F910F91FF90EF90DF90CF905A
:104A600008950E94BC2A6C01F8018281882391F18B
:104A700080910A0182FF08C025E433E040E0B601DE
:104A800090E080E00E943424CB31FCE5DF07C9F0E0
:104A9000CC312CE5D207D9F0CA318CE5D80711F416
:104AA0000E940125CE0190568115E0E29E0720F07C
:104AB000905E81159041E0F410924C0310924B03EC
:104AC000C4CF80910A01816080930A01EBCF0E94DC
:104AD0000B25E8CF80910A018F7EC13ED10531F0D0
:104AE000C53ED105B9F580910A018F7D80930A01F9
:104AF00080910A0180FFA9CFB801CE010E947922DE
:104B0000F801F280882309F4C8C0FF2009F4BEC070
:104B10000E94B70FF82E0E94DF0F8F298D7FB9F109
:104B200010924C0310924B038091B10381FD2FC072
:104B300060E0CE010E94EF23A80160E0CE010E9458
:104B4000CA230E94DF0F8D7F0E94FB0F82E00E942C
:104B50009A1076C0CE019056811520E2920720F07F
:104B6000905E8115904120F680910A0182FF6DCF01
:104B7000B801CE010E946822811167CF25E433E09D
:104B800040E0B60190E080E00E9434245ECF86E0F1
:104B9000F801A5E4B3E001900D928A95E1F7109237
:104BA0004703109249031092480380914B03909160
:104BB0004C03C817D90709F04AC0B801CE010E94BA
:104BC000A422882309F443C080914B0390914C03A5
:104BD00020910A0121FD36C080914D0390914E0332
:104BE0007601E81AF90AB80180914B0390914C03C1
:104BF0000E945F22E816F90650F50E94B70F81FF68
:104C000008C080910A01806180930A0182E00E94BD
:104C1000C00F0E94B70F85FF08C080910A01806213
:104C200080930A0180E20E94C00F60910A0166959C
:104C30006170A80180914B0390914C030E94CA239C
:104C4000F12C05CFB8010E94AA228111C5CF0E9484
:104C5000B70F182F0E94DF0F182B80910A0111FB4C
:104C600081F980930A010E94DF0F8D7F0E94FB0F64
:104C7000D0934C03C0934B03D0924E03C0924D038C
:104C800080910A01846080930A0160CF980140E01E
:104C9000B601CE010E943424DACEF1100DCFD5CE6C
:104CA000CF93DF93EB0186319C4509F03BC00E9416
:104CB000B70F982F9A7A2091B00320FF04C0382FA5
:104CC000347409F090E021FF04C0382F317109F0ED
:104CD00090E022FF04C0382F387809F090E023FFDD
:104CE00003C0827209F090E08A81882389F081E014
:104CF000911101C080E080934F0389E2911185E317
:104D00000E945A0F0E94211080E0DF91CF910895F8
:104D100080914F03811104C089E20E94610FF2CF9C
:104D200085E3FBCF81E0F1CFAF92BF92CF92DF92CC
:104D3000EF92FF920F931F93CF93DF937C015B0160
:104D4000C42FD22FFC0182818823F9F040935203B3
:104D50000E94BC2A909351038093500380E28C0FF1
:104D6000883008F061C0C77081E001C0880FCA9523
:104D7000EAF7DF91CF911F910F91FF90EF90DF90B5
:104D8000CF90BF90AF900C94610710915203141311
:104D900040C080915003909151030E94E82A6C0119
:104DA000B701C5010E945F22C816D90690F5C0E27E
:104DB000CD0F1D17B9F080E2810F883040F41770D5
:104DC00081E001C0880F1A95EAF70E946807C83091
:104DD00048F481E09D2F977001C0880F9A95EAF7FB
:104DE0000E946107802F0E945507C830E8F4D770F1
:104DF00081E001C0880FDA95EAF7DF91CF911F912A
:104E00000F91FF90EF90DF90CF90BF90AF900C94F8
:104E1000680780E28C0F883038F4C77081E001C0E9
:104E2000880FCA95EAF7E9CFDF91CF911F910F91D3
:104E3000FF90EF90DF90CF90BF90AF9008950F93C9
:104E40009C01CB01233F4CE53407A1F190F4283DB0
:104E5000FCE53F0749F1293D4CE53407E9F1273DE1
:104E60003C45C1F0FC0182818823E1F1109252039C
:104E700019C0253FFCE53F0719F1263F4CE53407F3
:104E800029F1243F3C4571F707E225EE44EE64EF3B
:104E90007CE505C006E221EE41EE67ED7CE50E946F
:104EA000942680E00F91089507E225EE45EE68ED27
:104EB0007CE5F5CF06E221EE40EE63EF7CE5EFCF37
:104EC00006E221EE42EE65EF7CE5E9CF07E225EE52
:104ED00046EE66EF7CE5E3CF08E221E045EE69EDC2
:104EE0007CE5DDCF81E0DECFCF93DF93EC018989D4
:104EF000811115C081E0898B8F810E94BA0F88854E
:104F00000E94CE0F0E942110EA81FB816C897D896D
:104F1000309729F0CE010696DF91CF910994DF9169
:104F2000CF9108950F931F93CF93DF93EC018A8560
:104F3000811132C00B811C811755C80166E170E0F8
:104F40000E947F32DC01A55ABD4F1496ED91FC9171
:104F50001597309731F054966D917C918F599D4FF4
:104F60000995C80166E170E00E947F328C01055A04
:104F70001D4FF80187810E94C00FF80180850E94B3
:104F8000D40F0E942110188219861B861E821D8252
:104F90001092540310925303DF91CF911F910F9100
:104FA0000895DF92EF92FF920F931F93CF93DF93B9
:104FB0008C01FB018281882399F080910D019091F1
:104FC0000E01019669F0CBE5D2E0F12CE12CDD2455
:104FD000D39480910D0190910E018E159F0544F49C
:104FE000DF91CF911F910F91FF90EF90DF90089587
:104FF0008E818823C1F089859A858017910739F4BD
:1050000080915303909154038017910761F0DF86DC
:105010001C870B87CE010E947427CE0106960E9442
:1050200092270E94DC0F2FEFE21AF20A6696D1CF88
:10503000EF92FF920F931F93CF93DF937C01FB01BD
:105040008C0117550F3F110511F008F03FC08091FA
:105050000D0190910E018017910724F410930E0119
:1050600000930D012281C80166E170E00E947F3249
:10507000EC01C55ADD4F288B92818E81992371F105
:10508000FA86E9868F5F8E830E94BC2A9E878D8771
:105090000E94DF0F8F830E94B70F88870E94CB0F7B
:1050A0009885982B9887E881F981309759F02C8959
:1050B0003D89C80166E170E00E947F32B9018F59D5
:1050C0009D4F0995F0925403E092530381E0DF91E4
:1050D000CF911F910F91FF90EF9008958823B1F326
:1050E0008989882399F3C80166E170E00E947F32C4
:1050F0008F599D4F0E949227E9CF8F929F92AF9236
:10510000BF92CF92DF92EF92FF920F931F93CF93B4
:10511000DF9300D000D000D0CDB7DEB780910D0175
:1051200090910E01019609F061C026960FB6F89491
:10513000DEBF0FBECDBFDF91CF911F910F91FF90CA
:10514000EF90DF90CF90BF90AF909F908F90089599
:10515000C80166E170E00E947F32FC01E55AFD4F14
:10516000E288F388E114F10459F4D6012A2D1D9246
:105170002A95E9F7B601818592850E945F227C011C
:10518000C80166E170E00E947F32FC01E55AFD4FE4
:1051900086818823F1F0C80166E170E00E947F32C9
:1051A000FC01E55AFD4F858596850E94E82AE816A0
:1051B000F90678F4C40166E170E00E947F328C0148
:1051C000855A9D4F0E947427C8018F599D4F0E9498
:1051D0009227B3940B2D10E080910D0190910E0158
:1051E0004801801791070CF0B3CF9FCFB12C86E018
:1051F000A82ECE0101966C01EDCF9093A301809370
:10520000A201089590935A03809359030895E09161
:105210005903F0915A03309721F00190F081E02D6D
:10522000099480E00895DC01E0915903F0915A035C
:10523000309799F080911B01882351F0809182036F
:1052400087FF06C08C9111968C93119786E08C9302
:105250000280F381E02DCD0109940895DC01E091F5
:105260005903F0915A03309739F082E08C9304800F
:10527000F581E02DCD0109940895209157033091D7
:1052800058032817390771F09093580380935703F8
:10529000E0915903F0915A03309721F00680F7818D
:1052A000E02D099408952091550330915603281755
:1052B000390771F09093560380935503E091590399
:1052C000F0915A03309721F00084F185E02D099484
:1052D0000895FC01329680911B01882321F0809172
:1052E00082039EE187FF96E080E0915008F40895E4
:1052F00021912223D1F38F5FF8CF9C01662301F126
:1053000080911B018823F1F08091820387FF1AC0EE
:10531000462F469546954695603F90F4677081E02C
:1053200090E002C0880F991F6A95E2F7240F311DA3
:10533000F901228130E02823392381E0232B71F405
:1053400080E00895F9013296285F3F4F81918617DA
:1053500021F0E217F307D1F7F3CF81E008959C0124
:10536000FC0132968FEF90E04191461751F08F3F4C
:1053700019F4411101C0892F9F5F9630A9F78F3F23
:1053800009F40895280F311D87FD3A95F9016283CC
:1053900008959C01FC013296285F3F4F819186134E
:1053A00003C0DF0111971C92E217F307B9F70895C4
:1053B000FC01862F869586958695603F60F4E80F00
:1053C000F11D677021E030E001C0220F6A95EAF715
:1053D0008281822B82830895FC01862F8695869593
:1053E0008695603F68F4E80FF11D677081E090E0FA
:1053F00001C0880F6A95EAF780959281892382839C
:10540000089520911B01222329F02091820327FD7A
:105410000C94D8290C94AF2920911B01222329F048
:105420002091820327FD0C94EC290C94C929FC01DE
:10543000329680911B01882351F08091820387FF6F
:1054400006C08EE1DF011D928A95E9F7089586E096
:10545000F9CF08950C94292A8F5F80935B030C94F5
:105460002A2A83E080935B030C942A2A0C942C2A2A
:1054700081E080935B030C942A2A0C94382A0895C7
:1054800008950C94402A089508950C943F2ACF93D0
:105490000E94432A0E945D150E94442AC0E08C2F7E
:1054A0000E949214892B31F4CF5FC430C1F780E0A1
:1054B000CF91089581E0FCCF08951F921FB61F92EF
:1054C00011248F939F93AF93BF9380915C038111BD
:1054D00013C08091B8039091B903A091BA03B09121
:1054E000BB034196A11DB11D8093B8039093B903EE
:1054F000A093BA03B093BB03BF91AF919F918F91DB
:105500001F901FBE1F9018958091C003843031F109
:105510000E94E10410925C0388E190E020E40FB661
:10552000F894A895809360000FBE2093600083B725
:10553000817F846083BF83B7816083BF78948895BF
:1055400083B78E7F83BF0FB6F894A89580916000D3
:10555000886180936000109260000FBE08950E94E1
:1055600091070C94E50482E084BD93E095BD9AEF29
:1055700097BD80936E0008952FB7F8948091B8037B
:105580009091B903A091BA03B091BB032FBF0895C6
:10559000CF93DF9300D000D0CDB7DEB78FB7F894AC
:1055A0002091B8033091B9034091BA035091BB03E5
:1055B00029833A834B835C838FBF69817A818B8196
:1055C0009C810F900F900F900F90DF91CF910895D5
:1055D0009C014FB7F8948091B8039091B903A091C2
:1055E000BA03B091BB034FBF821B930B089578940D
:1055F0001F921FB61F9211248F939F93AF93BF9357
:105600008091B8039091B903A091BA03B091BB0304
:105610000196A11DB11D8093B8039093B903A09387
:10562000BA03B093BB03BF91AF919F918F911F902D
:105630001FBE1F90189581E08093E00080E2809368
:10564000D8001092C9008FE19EE40197F1F700C0E5
:10565000000087E090EBDC018093C9039093CA03BC
:10566000A093CB03B093CC0388E19CE00FB6F894F1
:10567000A895809360000FBE90936000FFCF80914B
:1056800080030895089524E02093E9002FEF3091DE
:10569000E800215035FD06C035ED3A95F1F70000E0
:1056A0002111F5CF2091E80025FF0BC050E040E02C
:1056B00066E070E00E94D92D8091E8008E7780939B
:1056C000E8000895CF93DF93D82FC92F80911B0155
:1056D0008823C1F18091820387FF34C060E284E0B7
:1056E0008093E9008FEF9091E800815095FD06C00E
:1056F00095ED9A95F1F700008111F5CF8091E800C2
:1057000085FF1DC080911B0170E050E040E08111D9
:1057100004C050E040E068E070E08D2F9C2F0E94B4
:10572000D92D8091E8008E778093E80080E2ED2FFC
:10573000FC2FA0E6B3E001900D928A95E1F7DF918E
:10574000CF91089568E081E0CBCF80935D037093A3
:105750005F0360935E038091C0038430F9F480930B
:10576000E9008FEF9091E800815095FD06C095ED1E
:105770009A95F1F700008111F5CF8091E80085FF3F
:105780000DC050E040E063E070E08DE593E00E94E2
:10579000D92D8091E8008E778093E8000895BC01B0
:1057A00084E00C94A52BBC0183E00C94A52BCF9333
:1057B000603211F52091C0032430F1F42091E9000A
:1057C000C091EC00C795CC27C7952F70C22B22E063
:1057D0002093E9002091E80020FF0BC050E040E05A
:1057E00060E270E00E94D92D8091E8008E7780936E
:1057F000E800CF70C093E900CF9108950C94382A47
:105800006091BC0381E0611101C080E00C94312AF9
:105810009091C00381E0943009F080E06091BC0376
:105820000C94362A42E061EC81E00E942A2F42E289
:1058300061EC84E00E942A2F42E261EC82E00E9447
:105840002A2F42E260EC83E00E942A2F9091C0034D
:1058500081E0943009F080E06091BC030C942C2A24
:105860008091C203893089F148F4823009F49DC0E7
:10587000833009F458C0813041F008958A3009F42A
:1058800084C08B3009F46AC008958091C103813AC5
:1058900009F048C08091E800877F8093E8008091FC
:1058A000C5039091C603892B61F460E280E693E022
:1058B00070E00E94772E8091E8008B778093E8005B
:1058C000089560E090E080E0F3CF8091C1038132E1
:1058D00049F58091C5039091C6038D7F892B11F501
:1058E0008091E800877F8093E8008091E80082FF44
:1058F00015C08091F200823031F48091F100813046
:1059000011F0863021F48091F10080938003809122
:10591000E8008B778093E8000C945E2F8091C003A1
:105920008111E3CF08958091C103813AD9F7809125
:10593000C5039091C603892BA9F78091E800877F62
:105940008093E8008091E80080FFFCCF80911B01EC
:105950008093F1008091E8008E77DCCF8091C103C5
:10596000813201F78091C5039091C603892BD1F64E
:105970008091E800877F8093E8000E945E2F8091ED
:10598000C30380931B010C9491078091C103813262
:1059900049F68091E800877F8093E8000E945E2F9F
:1059A0008091C4038093810308958091C103813A5B
:1059B00009F0B8CF8091E800877F8093E80080915C
:1059C000E80080FFFCCF80918103C2CF84B7877F3E
:1059D00084BF0FB6F894A895809160008861809389
:1059E0006000109260000FBE80E890E00FB6F8945F
:1059F00080936100909361000FBE0C943D2A0E9439
:105A0000AE2F0E940130E2EEF0E08081846080835E
:105A100078940C945C328FE091E00C940229809190
:105A2000C0038530A9F48091C003853011F00C9437
:105A3000AF2A0E94842A8091BE038823A1F30E948A
:105A4000472A882381F30E94C32D0E949107EBCF40
:105A50000895CF93DF93CDB7DEB7A0970FB6F89434
:105A6000DEBF0FBECDBF8091C003843009F583E057
:105A70008093E9008091E80082FF1AC08091E800DD
:105A800090E085FF09C050E040E060E270E0CE01A8
:105A900001960E94282E91E08091E8008B778093F8
:105AA000E800992329F060E2CE0101960E943C199A
:105AB000A0960FB6F894DEBF0FBECDBFDF91CF9199
:105AC00008950C94632DFC01CB01DA012F2F3327AD
:105AD00023303105D1F070F42130310509F44EC086
